:020000040800F2
:10000000F00B002091010008AD1F00082F1C000814
:1000100000000000000000000000000000000000E0
:10002000000000000000000000000000B11F0008F8
:100030000000000000000000AF1F0008B31F000810
:10004000A3010008A3010008A3010008A301000800
:10005000A3010008A3010008A3010008A3010008F0
:10006000A3010008A3010008A3010008A3010008E0
:10007000A3010008A301000800000000A30100087C
:1000800000000000BD1F000800000000000000008C
:10009000A301000800000000A3010008A30100085C
:1000A000A3010008A3010008A3010008A3010008A0
:1000B000A3010008A3010008A3010008A301000890
:1000C00000F002F800F054F812A030C808382418E4
:1000D0002D18AC4201D100F04BF80FCCA246AB4634
:1000E0000CA730CF2D1B083F3F197C427F1E544484
:1000F0002D090426F441641EAC4201D300F038F807
:100100000126334200D0FB1A3343984754465D46DC
:10011000DFE700003457000054570000103A02D3C4
:1001200078C878C1FAD8520701D330C830C101D598
:1001300004680C6070470000704700000023002432
:1001400000250026103A01D378C1FBD8520700D30E
:1001500030C100D50B60704710B5642902D100F0A2
:100160006FF810BD002010BD1FB51FBD10B510BD2C
:1001700000F0CFF91146FFF7F7FF01F027FF00F07D
:10018000E7F903B4FFF7F2FF03BC00F0EDF900005C
:100190000748804707480047FEE7FEE7FEE7FEE71F
:1001A000FEE7FEE704480549054A064B7047000094
:1001B000BB1F0008C1000008F0050020F00B002064
:1001C000F0090020F00900200FB41CB5074B06AA67
:1001D0007B4469460090059800F06FF9002069465D
:1001E00000F07EF91CBC08BC04B018470D030000E9
:1001F00070B5044685690068C10601D5302600E067
:100200002026C00707D070BD62683046A1689047BD
:10021000206A401C20626D1EF6D570BD70B5044684
:1002200085690078C00707D170BD6268A168202089
:100230009047206A401C20626D1EF6D570BD0000FC
:10024000F7B5002575291068009914A611D0C0468D
:10025000C046002802DA404211A608E00099096869
:100260008A0701D50FA602E0490704D50EA601258D
:1002700001E0C046C046009F0024243704E000F09F
:1002800034F930313955641C0028F8D12B463246F8
:100290002146009800F0B4F8FEBD00000000000008
:1002A0002D0000002B00000020000000F3B50446E4
:1002B000002081B020622046E168884700287AD07B
:1002C000252802D06268A16871E0E1682046002517
:1002D000884706460020E0610746A0612A2E0AD022
:1002E000304602F08EFE002827D0B8000019303EBC
:1002F0000090866119E00298BA00121902C8916153
:1003000002902046E1688847012F064617D1E06930
:1003100000281FDA202085431CE000980A2180690C
:10032000484300998019303888612046E168884741
:10033000064602F066FE0028EFD1012F0AD02E2ECD
:1003400008D12046E16888470646202005437F1CE7
:10035000022FC3DBA069002803DA4042A06101201C
:100360000543E80701D010208543002E23D03046F6
:100370004138192803D80120C00205432036204601
:1003800025603146029A1546FFF7E6FE00280BD09D
:10039000012806D0ED1DE808C000083002908AE769
:1003A00009E02D1D029586E762683046A1689047F6
:1003B000206A401C7EE7206AFEBD01E004C0091FE0
:1003C0000429FBD28B0701D50280801CC90700D00D
:1003D0000270704700290BD0C30702D00270401C86
:1003E000491E022904D3830702D50280801C891E7E
:1003F000E3E70022EEE70022DFE77047704770472F
:10040000FFB504460D4681B024300090216888066F
:1004100004D51022E0699143216000E00120A84248
:1004200001DD471B00E000270498A1697A19101824
:10043000081AA0612078C00602D42046FFF7D8FE33
:10044000002608E003986268A168805D9047206AF2
:10045000401C761C206204988642F3DB2078C0069C
:100460000AD52046FFF7C4FE06E06268A168302086
:100470009047206A401C206238467F1E0028F4DC2A
:1004800007E000986268A168405D9047206A401CC0
:10049000206228466D1E0028F3DC2046FFF7BEFED2
:1004A0002078000602D5022005B0F0BD0120FBE750
:1004B00001694A1C02610878704700B58FB002914B
:1004C0000021059105490193794403911146049057
:1004D0006846FFF7EBFE0FB000BD0000E5FFFFFF31
:1004E0000A681070521C0A60704701468008081A9A
:1004F00002091018020A1018020C1018C008820015
:1005000012185200891A01E0401C0A390A29FBD24C
:100510007047754600F024F8AE460500694653461C
:10052000C008C000854618B020B5FFF73BFE60BC90
:10053000B64600260027C0C5C0C5C0C5C0C5C0C5D9
:10054000C0C5C0C5C0C5403D490849008D4670477B
:1005500010B50446C046C0462046FFF712FE10BD47
:10056000004870472800002001491820ABBEFEE774
:100570002600020070470000B0B5044600F0DAF82B
:100580000546601C02D004480078041900F0D2F837
:10059000401BA042FAD3B0BD00000020F0B58AB0E5
:1005A00007900B68002B00D1B3E00E465A4807991C
:1005B000814201D0062000E005200B210907079A9F
:1005C00052180A21CA410192042A00D301900798C7
:1005D00020300090002215461746029619460BE07F
:1005E00021434E4801607F1C31680846F840121DC7
:1005F000AD1C002800D18CE001231846B840014012
:10060000F1D0059306920391324603263146A94064
:100610000495CD4351680C463440631E012B089568
:10062000099110D807998B682B40D668049DAE407D
:100630001E438E60099AD306DB0FBB404E6886438B
:100640001E434E6006E0032C049D03D13446029EF7
:10065000069A1DE00799C868089A1040029EB36880
:10066000AB400343CB60022C069A11D11C201040F2
:100670000F218140FB089B00009AD4588C433169BC
:1006800081402143D150069A7068032409900440A8
:10069000AC4007990868089B1840204308600998F7
:1006A0008003800F059B9ED04B4908681843086063
:1006B0000C2010400F21814003233C469C43184BE3
:1006C000E3588B4301998140194315482150134841
:1006D00081687068C30202D5039C214301E0039C3A
:1006E000A1430E4B9960D968830201D5214300E0F4
:1006F000A1430A4BD9605968830301D5214300E027
:10070000A143064B59601968C00300D568E7A143AF
:1007100067E70AB0F0BDC046001C0050000401406D
:1007200008000140002A02D0182281507047282278
:1007300081507047014800687047C046EC050020B2
:10074000B0B50246034640335C780220202C17D116
:100750001C78012C14D024205870106802680124E1
:10076000A2430260220305689543056002680A43BC
:100770000260016821430160002018702021597037
:10078000B0BDB0B50246034640335C780220202C51
:1007900017D11C78012C14D02420587010680268DE
:1007A0000124A24302600F22120205689543090248
:1007B0002943016001682143016000201870202155
:1007C0005970B0BD04490A68012313430B60034903
:1007D0000A6802430A607047341002400400014076
:1007E000F0B581B0002822D005464035697800294F
:1007F00005D100212970044600F058F92046242133
:10080000697001680B68012293430B600F231B067C
:1008100044689C430C618C68194B1C408C60846854
:10082000C668012E06D1D60334438C600AE001204D
:1008300001B0F0BD2127BF023C438C60022E01D1E4
:10084000D4024C604C680F4E26434E60CC681C406E
:10085000CC60036944691C4383691B022343CB605A
:10086000C369046A1C430C600B6813430B600021CE
:10087000416420226A7001630846A97001B0F0BD8E
:10088000FF7FFFFF00800002F0B589B004460746F5
:1008900040377D780220202D09D10E9E002E08D0F1
:1008A0000F9D002D05D007953D78012D06D109B08B
:1008B000F0BD01204102616409B0F0BD03960593CB
:1008C00002920891012006903870FFF733FF064628
:1008D0002068816909042DD410990491212179702F
:1008E0004021B970002565640799618503996162AB
:1008F00065636849089A0A400599C9B209040892D3
:1009000089184268644B1340C918644A89184160C9
:1009100020460499324601F0F6FA00283ED1049AA6
:1009200007952068059901291ED10299C9B28162F3
:10093000134629E00698C50302E081692942CBD01D
:10094000FFF7F8FE811B20681A29F6D38169294236
:10095000F3D0606C20210843606479700020387007
:10096000B870069809B0F0BD0299090A8162204664
:100970001146324601F0C7FA0028079D0ED12168C2
:100980000298C0B28862049B009680210022204613
:10099000059201F00BFA0028079D03D03D700698E0
:1009A00009B0F0BD01204506618D090A3C4B3D4967
:1009B0000690079506D020680A4641681140021D3E
:1009C000FF2008E0608D226853680B40C1B2090423
:1009D0001943121D2B46089D194329431160208598
:1009E000049D11E0608D208521684A682D4B1A40D6
:1009F000C0B200041043091D079A089B1043184316
:100A00000860608D00282FD020462946324601F02C
:100A10007AFA002825D12068616A0A788262608D9E
:100A2000401E6085481C6062208D401E2085618DBF
:100A30000029E6D00004E4D100968021002220465F
:100A40002B4601F0B3F900280BD1608D000AC9D004
:100A5000FF20208521684868124A1040091D104A6D
:100A6000CBE7069809B0F0BD20462946324601F092
:100A700007FA0028069800D019E720682021C161F4
:100A80004268094B13404360797005983870B8701C
:100A900009B0F0BDFF030000009800FC0020000139
:100AA0000000FF01009C00FC00E800FEB0B586B02D
:100AB0000021059104910391029101910068184C65
:100AC000184A90420ED0184A904226D1206802223D
:100AD00010432060206810400090009801225505C6
:100AE000C0200CE0206802221043206020681040E3
:100AF00000900098012085050320800206220592BF
:100B0000032204920391122102910190074801A946
:100B1000FFF744FDE0682843E06006B0B0BDC04682
:100B20002C100240005800400054004000040050C7
:100B30001D48007802490A68101808607047C046CE
:100B4000EC05002080B50848016840220A43026095
:100B5000032000F00BF8002801D0012080BD00F038
:100B600027F8002080BDC0460020024070B5044632
:100B70007D20C0000C4E317802F048F901460B4848
:100B8000006802F043F900F01BFD0125032C08D892
:100B9000002806D10025E84321462A4600F020F827
:100BA0007460284670BDC046000000202000002070
:100BB00004480168012211430160110742680A4399
:100BC0004260704734100240002805D41F210840BD
:100BD00001218140014801607047C04600E100E00A
:100BE000002805D40322034693430A4A9A1803E0D7
:100BF0000C220240064BD2188007C00E8901C9B2F0
:100C00008140FF2383401068984308431060704779
:100C100014ED00E000E400E0F0B589B007680125BC
:100C2000EA02114620317E4B0F4276D0079208909F
:100C30002907143B18680840069002D11868084339
:100C40001860029303912F02764C2068C00511D4DE
:100C5000206838432060FFF76DFD06462068384263
:100C600008D1FFF767FD801B6428F7D903252846C4
:100C700009B0F0BD0326340569484C380590016879
:100C80002140089B5868024604942240019636048D
:100C9000914209D102463240B2420DD19A68049B7A
:100CA0001A40914204D107E001463140B14203D1DC
:100CB000059909688903DAD4594B596831401DD028
:100CC0003040814203D008980078800609D4089803
:100CD00080683040814211D0089800680799084226
:100CE0000CD05868E9045A680A435A605A688A4323
:100CF0005A600146B143596038427FD1089807686D
:100D000007990F424ED1B90661D40699002904D142
:100D1000029C2168039A91432160F9070BD1B9071E
:100D200011D4790717D439071ED4790625D40025A4
:100D300039069CD52CE0196803229143C2680A4306
:100D40001A60B907EDD519680C22914302690A436C
:100D50001A607907E7D5032189021A688A43416935
:100D6000114319603907E0D5032109031A688A4342
:100D70008169114319607906D9D5012189061A685C
:100D80008A43016A114319600025390600D46EE7D1
:100D900003218A0419689143C069084318602846F2
:100DA00009B0F0BD826811463140B1420AD10498C1
:100DB000024003231B05059D2C689C43184B089893
:100DC00014432C605A680A435A60B9069DD542689C
:100DD00011463140B1420AD10498024003231B0559
:100DE000059D2C689C430E4B089814432C605A6850
:100DF0000A435A60069900298AD08EE7FFF79AFCC9
:100E00000546884C064B5868800500D576E7FFF705
:100E100091FC401BA042F5D9019D284609B0F0BDC8
:100E20004C10024000700040F0B583B0002846D05E
:100E30000E4602907A480068012101910840B042B4
:100E400016D2774908680125A84330430860754CDD
:100E5000FFF770FC0746724800682840B04207D090
:100E6000FFF768FCC01BA042F5D9032003B0F0BD1A
:100E7000029D286881076C4C05D52168F0229143BA
:100E8000AA680A432260C0071CD165480068012790
:100E90003840B04224D962490868B8430860614CC0
:100EA000FFF748FC05465E480068C00718D0FFF70A
:100EB00041FC401BA042F6D9032003B0F0BD012045
:100EC00003B0F0BD6A6821460C390968012A34D0A4
:100ED000032A2DD0022A72D1890301982BD52FE045
:100EE000029B18684107504C06D507210902226869
:100EF0008A43D96811432160000707D50720C00243
:100F0000216881431869C0000843206021680807F0
:100F1000820F46487A441279520097440154725B1A
:100F200038042146083909680904490F884068E0F7
:100F30008901019804D403B0F0BD49070198FAD59E
:100F4000216803200190814311432160FFF7F2FBE8
:100F500007466868334D03282BD002281ED001288D
:100F60000AD120680C21014004298ED0FFF7E2FB52
:100F7000C01BA842F5D909E020680007800F00D106
:100F800083E7FFF7D7FBC01BA842F5D9019803B050
:100F9000F0BDFFF7CFFBC01BA842F7D820680C219B
:100FA00001400829F5D170E7FFF7C4FBC01BA84238
:100FB000ECD820680C2101400C29F5D165E78905A2
:100FC0000198B8D5BCE720460C380068C00612D599
:100FD000184816E08A02120F154B9A5C0902890F15
:100FE000491C2368DB0309D420460C380068C0067E
:100FF00003D4114802E0104803E00E48504301F0CA
:1010000005FF21680906090F0C4A515CC8400C49CC
:1010100008600C480068FFF7A9FD03B0F0BDC046AA
:1010200000200240881300000C10024000127A00D9
:101030003458000800093D000024F4001030000876
:101040002000002004000020F0B589B0002856D010
:10105000614EF1680C220A400692012105910904B3
:10106000F76804910F4007900078C00710D00698E9
:10107000082806D006980C2800D0CFE0002F00D119
:10108000CCE03068800303D50798406800284AD038
:1010900007980078800735D407980078C00645D4B3
:1010A0000798007800075FD407990878400700D5B3
:1010B00094E00878800600D517E10798846A002C30
:1010C0001AD006980C2800D060E1012C2BD0F068D3
:1010D000049A0240079BD96A8A4224D10F218904CD
:1010E00001401A6B91421ED1032189050840596BBA
:1010F0008842059800D04DE2002009B0F0BD0120E3
:1011000009B0F0BD079BD8680699042906D0069956
:101110000C2900D0A8E0002F00D0A5E031684907D5
:1011200039D5002837D1059809B0F0BD0120440217
:101130000699002900D1ADE03168079AD269000212
:10114000002A00D101E101433160FFF7F3FA0546BF
:101150003068204200D008E1FFF7ECFA401B02287B
:10116000F6D9032009B0F0BD306D0799496900290F
:1011700000D1D9E0012108433065FFF7DBFA0546CD
:10118000306D800790D4FFF7D5FA401B0228F7D9BD
:10119000032009B0F0BD1F21090272688A43196952
:1011A00009021143716031680922914301433160A2
:1011B000F1680807820FF8485200C0467A449288C6
:1011C0005200974403002401D8013A0170680004DA
:1011D000410F04988840CEE100100240012211071F
:1011E000B06B0840029002D1B06B0843B06301912C
:1011F00003921402EF4F3868C00523D438682043A7
:101200003860FFF797FA0546386820421AD1FFF791
:1012100091FA411B03206429F6D9BBE13068079994
:101220004968049A914209D005221204914200D0E3
:10123000CDE005998904084330603068049908437B
:101240003060D3E007988168306D039B5F0200290E
:1012500000D12AE105221202914200D11FE1A142F0
:1012600000D036E1204339E13168002800D1D3E0D5
:101270000922914301433160FFF75CFA054630686B
:10128000400700D501E1FFF755FA411B0320022971
:10129000F5D97FE13168214204D00799C969002955
:1012A00000D177E10720400371688143079B586AAA
:1012B00001437160FF21090672688A43196A0906B1
:1012C00089187160400B04998140F0680006000F96
:1012D000B54A105CC140B5480160B5480068FFF7E9
:1012E00045FC002800D055E1DAE6B0680799896925
:1012F000002900D1B3E001210843B060706B0843BE
:1013000070634803AD490A6802430A60FFF712FAA6
:101310000546B068800700D5CFE6FFF70BFA411B02
:1013200003200229F5D935E1012188433065FFF713
:1013300001FA0546306D800700D4B5E6FFF7FAF9EB
:10134000411B03200229F5D924E181433160FFF7D5
:10135000F1F905463068204200D1A1E6FFF7EAF92D
:10136000411B03200229F5D914E1072040037168CD
:101370008143079A506A08437060FF200006716835
:101380008143106A00064018706089E6012001065A
:1013900032688A4332604706FFF7CCF90546022CD3
:1013A0000AD13068384200D1C3E0FFF7C3F9411BCE
:1013B00003200229F5D9EDE03068384200D19BE6E0
:1013C000FFF7B8F9411B03200229F5D9E2E0049A9E
:1013D0009043306030681040089008980598800469
:1013E000326882433260002900D192E005984404BB
:1013F000FFF7A0F905463068204200D048E6FFF725
:1014000099F9401B6428F6D9032009B0F0BD306873
:10141000C0067CD56248AEE0012081433160FFF711
:1014200089F905463068400700D435E6FFF782F9B0
:10143000411B03200229F5D9ACE08A02120F574B59
:101440009A5C0902890F491CF368049C234200D06E
:101450008EE03068C00600D589E0524888E001215E
:101460008843B060480355490A6882430A60FFF721
:1014700061F90546B068800700D41EE6FFF75AF907
:10148000411B03200229F5D984E01F200002716866
:10149000814307980069000208437060FCE59902E7
:1014A00008433065306D204318E0A0433065980252
:1014B000316D81433165FFF73DF905463E4C306D96
:1014C00038421AD0FFF736F9411B0320A142F6D962
:1014D00060E0A04330659902306D88433065FFF7C6
:1014E00029F90546344C306D384206D1FFF722F910
:1014F000411B0320A142F6D94CE00298002807992D
:1015000000D0D6E5B06B019A9043B063D1E5254891
:1015100031E005984404FFF70DF905463068204294
:1015200000D1B5E5FFF706F9411B03206429F5D981
:1015300030E0FD200004F1688143079B2C330DCB84
:10154000084310431843F0602748401C31680143AA
:101550003160FFF7EFF804463068384200D0CBE541
:10156000FFF7E8F8011B03200229F5D912E00C4827
:10157000504301F04BFCF1680906090F0A4A515C1F
:10158000C8400A4908600A480068FFF7EFFA0028D7
:1015900000D181E509B0F0BD00127A00345800088E
:1015A00000093D000024F400103000082000002055
:1015B000040000200070004088130000200001405B
:1015C000401E010E01D0012070470749074A5060B4
:1015D000074803680B400321890759180160002060
:1015E0009060072111607047FFFFFF0010E000E0EE
:1015F00020ED00E0B0B53822825C012A01D1022042
:10160000B0BD02463832022353700068436870242C
:10161000A3430D681D438468456001239D07A842CC
:1016200005D04D4DA84202D04C4DA84204D1802592
:10163000AC43496821438160002010705370B0BDF5
:1016400070B500281FD0054638356978002905D1C6
:1016500000212970044600F03BF820460221697001
:101660000268166801218C07A24205D03A4B9A42C3
:1016700002D0EB4B9A4208D170239E4383683343D8
:10168000A24205D10AE0012070BD3346A24205D036
:10169000314CA24202D0E24CA24205D103242402E2
:1016A000A34304691C4300E01C4680239C43436918
:1016B00023431360C368D362406890625161A9718B
:1016C000A970E970297169716970002070BDC04608
:1016D00010B50068D249884211D00C49884213D114
:1016E0000B48416810220A43426011240021204621
:1016F0000A46FFF775FA2046FFF766FA10BD044860
:10170000016804220A43026010BDC0460010004078
:10171000341002403921415C01291BD10146393185
:1017200002220A700068C26801210A43C2608A0767
:10173000904205D0084A904202D0B94A904204D162
:10174000826807231340062B02D002680A43026016
:10175000002070470120704700140140000801403C
:10176000F0B53822825C012A01D10220F0BD024688
:10177000383202235370504E3346773B0468A068DA
:101780001840A0600D6800234F2D1FDC1F2D36DD93
:10179000202D38D0302D36D0402D00D087E0206A63
:1017A000256A0126B5432562A569F026B543CE68B2
:1017B00036012E43A6610A25A843496801432162E8
:1017C000A06847210143302081436AE06F2D26DD68
:1017D00001204703BD4257D00003854218461AD066
:1017E000702D64D1A06830404D688E68C9682E4362
:1017F000090231430143A160A068772150E0002D28
:1018000001D0102D53D1A0687021884305430720D3
:101810002843A0601846137001215170F0BD502D6F
:101820001BD0602D43D11020C043256A054025629E
:101830000F252D03A669AE43CD682D033543266AD7
:10184000A561A025AE434968090131432162A16821
:1018500067250D430540A56024E0206A256A01261E
:10186000B5432562A569F026B543CE6836012E43FF
:10187000A6610A25A843496801432162A06857214F
:101880000143202081430CE0A56835404E688F68F5
:10189000C9683743090239432943A1608003A1681D
:1018A0000143A1601846137001215170F0BD012061
:1018B000137001215170F0BDFF00FFFF7047B0B5FC
:1018C00004464020C54320680169890717D5C168CF
:1018D000890714D529463E310161012121768069AD
:1018E000800703D02046FFF7E9FF05E0204600F01F
:1018F0009DF8204600F091F90020207620680169CB
:10190000490718D5C168490715D529463C310161F9
:101910000221217680698005800F03D02046FFF7E1
:10192000CDFF05E0204600F081F8204600F075F973
:101930000020207620680169090717D5C1680907CA
:1019400014D529463831016104212176C069800708
:1019500003D02046FFF7B2FF05E0204600F066F80E
:10196000204600F05AF90020207620680169C90657
:1019700018D5C168C90615D529463031016108213D
:101980002176C0698005800F03D02046FFF796FFBF
:1019900005E0204600F04AF8204600F03EF900201D
:1019A000207620680169C90709D0C168C90706D037
:1019B00029463F310161204600F030F92068016975
:1019C000490606D5C168490603D50561204600F0E1
:1019D0002DF9B0BD80B586B0002105910491039129
:1019E0000291019100688B4A904201D006B080BDFF
:1019F000022002900B4A13680343136012680240EE
:101A0000009206200590049103910120400301906B
:101A10000098054801A9FEF7C1FD06B080BDC0468B
:101A2000000801402C1002400004005070470000E4
:101A300070B53823C35C012B01D1022070BD034671
:101A400038330224E241032A00D994E07A4412791F
:101A50005200974401651F400068026A0125AA43AD
:101A60000262026A4568866945607325AE430D6867
:101A7000354385614D684563A2438C681443046215
:101A8000826908241443846182690424A243826128
:101A9000C96868E0012214020068056AA54305626E
:101AA000046A4568C66945607325AE430D683543D1
:101AB000C5614D68C563520294438A68120222438D
:101AC0000262C26908241443C461C2690424A243A7
:101AD000C261C96822E0012214030068056AA543B7
:101AE0000562046A4568C669456073252D02AE43E8
:101AF0000D682D023543C5614D6805645503AC433F
:101B00008D682D0325430562D402C5692543C5614F
:101B10009202C4699443C461C96809021C3023E07D
:101B20000068026A1024A2430262026A446885695E
:101B3000446073242402A5430C6824022C4384616E
:101B40004C6884632024A2438C68240114430462FB
:101B50000122D402856925438561920284699443F8
:101B60008461C9680902183002680A4302600020D3
:101B70000021197070BD01200021197070BD000096
:101B800070B500281FD0054638356978002905D181
:101B900000212970044600F03FF8204602216970B8
:101BA0000268166801218C07A24205D0184B9A42A0
:101BB00002D0184B9A4208D170239E438368334366
:101BC000A24205D10AE0012070BD3346A24205D0F1
:101BD0000F4CA24202D00F4CA24205D10324240292
:101BE000A34304691C4300E01C4680239C434369D3
:101BF00023431360C368D362406890625161A97146
:101C0000A970E970297169716970002070BDC046C2
:101C100000140140000801407047704780B5024839
:101C200001F06AF880BDC046900000207047FEE7D2
:101C3000F0B585B00E4604464030049020688169B6
:101C4000C90606D400210F4601258269D30543D475
:101C500046E01021C1618169890635D4711C30D0FC
:101C600015460120002E6AD186030390C703FEF7B4
:101C700061FD206842680499897883693B4209D0F4
:101C8000324007D1202905D0416831434160FEF739
:101C900051FD054620688169890605D4FEF74AFD95
:101CA000401B1A28F6D375E081698906DFD50BE061
:101CB0008169890608D48169890605D48169890604
:101CC00002D481698906F3D52021C161012704214D
:101CD00001258269D30503D52B02C36129432F4611
:101CE0006B02560506D41A420AD1002F0BD10020F0
:101CF00005B0F0BDAD02C561082529431A4202D0E6
:101D0000C361022211438269920701D500228262D7
:101D10008269D20703D18269012313438361426838
:101D2000214B13404360606C084360642020049999
:101D30004870002008708870012005B0F0BD810354
:101D400002910390C0030190019F02E0816989061E
:101D5000BAD4FEF7EFFC411B2068B142F6D94268C5
:101D60000499897883693B420BD0029B1A4008D1C1
:101D7000202906D04168029A11434160FEF7DAFC3F
:101D80000546206881698906E0D4FEF7D3FC401B34
:101D90001A28F6D3206881692421039F01258269CE
:101DA000D30599D49CE7C04600E800FEF0B583B0A7
:101DB00014460D460646016888692840401B424289
:101DC00042410020A24217D11F465A1C2BD001903D
:101DD000002F30D1FEF7AEFC306881692940491BE5
:101DE0004A424A41A2423ED080692840401B4142BB
:101DF0004141A142EED0019803B0F0BD8A692A406A
:101E0000521B53425341A342F6D18A692A40521BC6
:101E100053425341A342EFD18A692A40521B534295
:101E20005341A342E8D18A692A40521B534253418D
:101E3000A342E3D0E0E70898029006E080692840DA
:101E4000401B41424141A142D5D1FEF773FC0299AA
:101E5000411A3068B942F1D981692940491B4A4287
:101E60004A41A242EAD130464030716C20221143EF
:101E700071644270002101708170012003B0F0BDD7
:101E8000F0B581B00546006880690024800622D440
:101E900016460F46002903D129E0806980061AD42E
:101EA000284639463246FFF7C3FE002827D1FEF701
:101EB00041FC811B2868B942EFD981698906ECD4BD
:101EC00028464030696C2022114369644270002129
:101ED000017081700124204601B0F0BDFEF72AFC9C
:101EE000286881698906EBD580698006F3D40024CF
:101EF000284621463246FFF79BFE0028EED00124FB
:101F0000204601B0F0BDF0B581B00546006880699B
:101F10000024800716D416460F46481C19D0002FFF
:101F200026D10024284621463246FFF781FE0028AC
:101F300038D1FEF7FFFB28688169890728D58069B9
:101F40008007EED5204601B0F0BD28688069800783
:101F5000F8D40024E14328463246FFF769FE002802
:101F6000F3D00124204601B0F0BD80698007E9D498
:101F7000284639463246FFF75BFE002812D1FEF7AD
:101F8000D9FB811B2868B942EFD981698907ECD454
:101F900028464030696C2022114369644270002158
:101FA000017081700124204601B0F0BDFEE770474A
:101FB000704780B5FEF7BCFD80BD704780B5024814
:101FC000FFF77DFC80BDC046B4000020A2B0FEF744
:101FD000B9FD14AC38212046FEF70DFA0026129602
:101FE000119610960F960E9605A82421FEF703FA77
:101FF0000325E80297490A68824301201790C3022B
:10200000D2180A601F9602271E9710211891149764
:1020100081052191800420902046FFF715F80028C3
:1020200003D0EFF3108072B6FEE712961196109669
:102030000F950F240E940EA801252946FEF7F4FEF5
:10204000002803D0EFF3108072B6FEE70B9608204D
:10205000059005A8FEF7E0FD002803D0EFF31080FF
:1020600072B6FEE703941896179616961596149670
:10207000794801680422114301600168114005910B
:102080000599016829430160016829400591059976
:1020900001683943016000683840059005980520C3
:1020A0000707290238463246FEF73CFB169615967E
:1020B0001320149014A904913846FEF76FFA17966E
:1020C00016961595FF24F4342046F33814903846BC
:1020D0000499FEF763FA6148614F624982C0066065
:1020E00045608660C6600661466186610838FEF715
:1020F00077FB002803D0EFF3108072B6FEE702945E
:10210000E4480021FEF71CFB002803D0EFF3108009
:1021100072B6FEE7DF4800263146FEF732FB0028A4
:1021200003D0EFF3108072B6FEE72C032046FEF7D3
:1021300049FBD948D94982C0066045608660C660BF
:102140000661466186610838FEF74AFB002803D025
:10215000EFF3108072B6FEE7CF480021FEF7F0FAE9
:10216000002803D0EFF3108072B6FEE7CA480026BD
:102170003146FEF706FB002803D0EFF3108072B65D
:10218000FEE76803FEF71EFBC548C649C64A44C0C1
:10219000066041608660C6601796169615960F9683
:1021A0000E960838FFF74CFA002803D0EFF31080A2
:1021B00072B6FEE71494BA4814A9FFF7D1FA0028C2
:1021C00003D0EFF3108072B6FEE7B548FFF7D8FCF6
:1021D000002803D0EFF3108072B6FEE7B0480EA9D6
:1021E000FFF708FA002803D0EFF3108072B6FEE77D
:1021F00008960796069660200590A94805A93246DC
:10220000FFF716FC002803D0EFF3108072B6FEE74C
:10221000A348FFF7DFFBA54DAE63A5481F21A54AE4
:102220006A62A962EE6228631596149624352846E0
:10223000FFF706FA002803D0EFF3108072B6FEE72E
:1022400014A92846FFF7D6F900280DD0EFF3108027
:1022500072B6FEE7007000402C100240040500201A
:1022600013041000005400408B4C204600F03CF951
:1022700000273846394600F017FB8F4806C88FA064
:102280000126334600F018FD1A21384600F00CFBF9
:102290008C4806C88CA0334600F00EFD302138462D
:1022A00000F002FB8B4806C88BA0334600F004FD0B
:1022B000204600F001FB039B180219047B4A1160C1
:1022C000506093602846FFF725FA542630253046A3
:1022D0002946019500F0E8FA744F0C370022384681
:1022E0008049FDF771FF7B4C06CC0124384623461C
:1022F00000F0E2FC684800F0DFFA0298FEF73CF9D3
:1023000004963046294600F0CFFA384675492246F1
:10231000FDF75AFF6F4806C838462346254600F0A9
:10232000CBFC5D4800F0C8FA029C2046FEF724F979
:102330003046019E314600F0B7FA0222384669491C
:10234000FDF742FF634806C838462B46039500F068
:10235000B3FC514800F0B0FA2046FEF70DF904989E
:10236000314600F0A1FA032238465E49FDF72CFF02
:10237000584806C838462B4600F09EFC464800F0F8
:102380009BFA2046FEF7F8F8049D2846314600F0F7
:102390008BFA042238465349FDF716FF4D4806C80C
:1023A0003846039B00F088FC3B4800F085FA204645
:1023B000FEF7E2F82846314600F076FA0522384664
:1023C0004849FDF701FF434E06CE3846039D2B4694
:1023D000083E00F071FC304800F06EFA2046FEF72F
:1023E000CBF80498019C214600F05EFA062238469C
:1023F0003C49FDF7E9FE06CE38462B46083E00F084
:102400005BFC254800F058FA0298FEF7B5F80498EE
:10241000214600F049FA072238463249FDF7D4FE3A
:1024200006CE38462B46083E00F046FC1A4800F01F
:1024300043FA029C2046FEF79FF8049E3046019D19
:10244000294600F031FA082238462649FDF7BCFE3D
:10245000204806C83846039B00F02EFC0E4800F0CA
:102460002BFA2046FEF788F83046294600F01CFA81
:10247000092238461B49FDF7A7FE164806C838460C
:10248000039B00F019FC044800F016FA2046FEF702
:1024900073F81AE704050020580500200058004092
:1024A000AC050020FFFF0000000801409000002064
:1024B000E7030000001000401000002049544331A1
:1024C0003133000008000020456C656374726F6E44
:1024D0006963730018000020455350204578616DF2
:1024E000706C65003D580008F0B5A3B00746642045
:1024F000FEF742F822A8AE2101700A2401260090BE
:1025000001960294782120910025384621972A4689
:102510001F953346FEF7B8F91D9022A82021199186
:1025200001700090019602941E943846209F39460F
:102530002A463346FEF7A8F91C9022A810211691CE
:102540000170009001960294219C204639462A464B
:102550003346FEF799F91B9022A8B0210170009034
:1025600001961E9D0295204639461F9A3346FEF776
:102570008BF91A9022A8C82101700090019602954B
:10258000204639461F9D2A463346FEF77DF91890AE
:1025900022A80570009001961E9C0294219839464D
:1025A0002A463346FEF770F9179022A81699017053
:1025B000009001960294219839462A463346FEF748
:1025C00063F9169022A840210170009001960294B0
:1025D000219839462A462C463346FEF755F9159080
:1025E00022A881210170009001961E9802902198E6
:1025F00039463D4622463346FEF746F9149022A856
:10260000FF210170009001961E9C0294219F384684
:1026100029461F9D2A463346FEF736F9139022A815
:10262000A12101700090019602943846209F3946FE
:102630002A463346FEF728F9129022A8A6210170F7
:10264000009001960294219839463C462A4633462A
:10265000FEF71AF9119022A8A821017000900196A6
:102660001E980290219F384621462A463346FEF79F
:102670000BF9109022A83F210170009001961E9C3A
:1026800002943846209F39462A463346FEF7FCF826
:102690000F9022A8A4210170009001960294219825
:1026A00039462A463346FEF7EFF80E9022A8D3218A
:1026B0000170009001960294219F384620992A4685
:1026C0003346FEF7E1F80D9022A82A4605700090E7
:1026D0000196029438463D46209F39463346FEF720
:1026E000D3F80C9022A8D521017000900196029495
:1026F000284639463D461F9A3346FEF7C5F80B90EB
:1027000022A8F0210170009001960294219F384682
:1027100029461F9D2A463346FEF7B6F80A9022A89E
:10272000D92101700090019602943846209F3946C5
:102730002A463346FEF7A8F8099022A82221017004
:10274000009001960294219839462A463346FEF7B6
:102750009BF8089022A8DA2101700090019602945B
:10276000219F3846209C21462A463346FEF78CF8A6
:10277000079022A852210170009001961E980290A5
:102780003846274621462A463346FEF77DF806900E
:1027900022A8DB210170009001961E9C02942198D2
:1027A00039463D461F9A3346FEF76EF8059022A83B
:1027B00019990170009001960294219F384629468C
:1027C0001F9A3346FEF760F8199022A88D210170F8
:1027D000009001962546029438463C46209F394693
:1027E0001F9A3346FEF750F8049022A81421017076
:1027F00000900196029520461F9C3946224633469A
:10280000FEF742F822A9AF220A70009101960295C4
:102810001D991C9A51181B9A89181A9A8918189A86
:102820008918179A8918169A8918159A8918149A66
:102830008918139A8918129A8918119A8918109A66
:1028400089180F9A89180E9A89180D9A89180C9A66
:1028500089180B9A89180A9A8918099A8918089A66
:102860008918079A8918069A8918059A8918199A51
:102870008918049A89180F1821982099254622460C
:102880003346FEF701F8C7420BD1412001012D4824
:10289000FDF7B1FD219800F00FF806482E4685801F
:1028A0004580304623B0F0BD024A9180801CC0B202
:1028B0005080704788000020F0B58BB0079000254D
:1028C000FC4F03950597B020284308A908700A20FB
:1028D0000690012600910196029078210491079CB0
:1028E0002046039F3A463346FDF7CEFF09A80770FE
:1028F00000900196069802902046049C21463A4694
:102900003346FDF7C1FF0AA810210170009001961F
:1029100006980290079821463A46059F3346FDF7F0
:10292000B3FF642082210097019102904022079812
:1029300021463346FDF7A8FF82376D1C082DC1D113
:102940000BB0F0BDF4000020F0B593B00E93164626
:10295000D74B5A88CCB205941092A5180024812D2B
:1029600000D9A2E19F880A46090ACBB20797D91974
:102970003F2900D999E100950190002B00D190E109
:102980000E99481E81410991C9480078C0B2414260
:1029900041410D910598002800D182E11446099823
:1029A0000D9948400990019820385843400030184C
:1029B0000390032004400598001B0A900120029018
:1029C000C0030022BB4E049406930F9008E00C98BD
:1029D00002437254089A521C069B9A4200D160E14D
:1029E000079908925118CAB23F2AF3D808984200B2
:1029F0000398805A12900A06D20E822050431190FA
:102A000007220A4002989040FF210C9041400B9110
:102A10000599042904D200230F98002CDAD0C0E0D5
:102A2000002108E00B980440AC542E46491C0A983B
:102A3000814200D1AFE00B460F980446CC4010997C
:102A4000CA18D1B2129D2C420DD04C08402C1ED871
:102A5000119C0919775C0E9C35460D9EA6420ED13D
:102A60000C9C27430DE04C08402C10D8119C0919F0
:102A7000775C099C002C07D00C9C274306E00B9C3C
:102A800027406F542E4602E00B9C27407754591C78
:102A90000446CC40109D4F19FFB2129D2C420DD020
:102AA0007C08402C20D811983F18F45D35460E9EC6
:102AB0000D98B0420FD10C9804430EE07C08402CD6
:102AC00012D8119C3F19F45D3546099E002E07D09F
:102AD0000C9E344306E00B980440EC550F9802E03E
:102AE0000B9E3440EC552E46491C0446CC40971CA6
:102AF000FFB2129D2C420DD07C08402C20D811989A
:102B00003F18F45D35460E9E0D98B0420FD10C98DB
:102B100004430EE07C08402C12D8119C3F19F45D50
:102B20003546099E002E07D00C9E344306E00B98D4
:102B30000440EC550F9802E00B9E3440EC552E46B5
:102B4000491C0446CC40D21CD2B2129804420FD089
:102B50005408402C00D969E711981218B45C354626
:102B60000E9E0D98B04200D05CE70C9804435BE7E2
:102B70005408402C00D959E711981218B45C30461B
:102B8000099E002E02D00C9D2C4301E00B9D2C4091
:102B9000845406464AE71B1D049C0F98002C00D164
:102BA00018E70446DC4010995A18D1B2129D2C4205
:102BB0000DD04C08402C1ED811980918745C35466D
:102BC0000E9E0D98B0420FD10C98044311E04C08B2
:102BD000402C10D8119C0919745C3546099E002EB2
:102BE00005D00C9E344304E00B98044001E00B9E9A
:102BF00034406C542E46049C012C00D1EAE6511C52
:102C0000C9B2129D9D402F466B040CD54B08402B3A
:102C10001AD811980918735C0E9C0D98A0420FD118
:102C20000C9803430EE04B08402B0DD8119BC9189C
:102C3000735C3546099E002E29D00C9E334328E054
:102C40000B9803407354049C022C00D1C2E6911CE3
:102C5000C9B2BA040ED54A08402A00D9BAE611987A
:102C60000918725C0E9B0D98984200D1AFE60B9844
:102C70000240AEE64A08402A00D9ABE6119A89180C
:102C8000725C099B002B09D00C9B1A43A1E60B9E9A
:102C900033406B542E46022CD9D19BE60B9B1A4035
:102CA00097E6034800994180019C204613B0F0BD8F
:102CB00088000020F4000020F0B581B00E460746E1
:102CC00000780021002813D01C4615460091C0B2A0
:102CD00031462A462346FFF737FE014638788142BF
:102CE00007D178787F1C0028F1D1009801B0F0BDA1
:102CF000084601B0F0BD0000F0B5056801221102E0
:102D0000D2051826404B17460EE0196000BF00BFE1
:102D100000BF00BF00BF00BF00BF00BF00BF00BFBB
:102D2000761E7F08002E19D01C46103C216000BF83
:102D300000BF00BF00BF00BF2F42E6D000BF00BFF2
:102D400000BF00BF00BF00BF196000BF00BF00BFD1
:102D500000BF00BF761E7F08002EE5D1456818260B
:102D600017460EE0196000BF00BF00BF00BF00BFE4
:102D700000BF00BF00BF00BF00BF761E7F08002E4F
:102D800017D0216000BF00BF00BF00BF00BF2F42AF
:102D9000E8D000BF00BF00BF00BF00BF00BF196088
:102DA00000BF00BF00BF00BF00BF761E7F08002E1F
:102DB000E7D1806818250EE0196000BF00BF00BF92
:102DC00000BF00BF00BF00BF00BF00BF00BF6D1E3F
:102DD0005208002D17D0216000BF00BF00BF00BF08
:102DE00000BF0242E8D000BF00BF00BF00BF00BF6D
:102DF00000BF196000BF00BF00BF00BF00BF6D1E55
:102E00005208002DE7D1F0BD2800005043088B4246
:102E10001AD3002203098B4279D3030A8B425ED373
:102E2000030B8B4242D3030C8B4227D30902FF22B0
:102E300012BA030C8B4202D31212090203D0030B05
:102E40008B4233D31AE0D3E0411A8041401C7047D3
:102E500003460B4371D443088B42F5D30022030988
:102E60008B4254D3030A8B4239D3030B8B421DD3BD
:102E7000030C8B4202D394466EE0090AC30B8B42CB
:102E800001D3CB03C01A5241830B8B4201D38B0376
:102E9000C01A5241430B8B4201D34B03C01A52411B
:102EA000030B8B4201D30B03C01A5241C30A8B425E
:102EB00001D3CB02C01A5241830A8B4201D38B0249
:102EC000C01A5241430A8B4201D34B02C01A5241ED
:102ED000030A8B4201D30B02C01A5241CDD2C3095F
:102EE0008B4201D3CB01C01A524183098B4201D3DB
:102EF0008B01C01A524143098B4201D34B01C01AC6
:102F0000524103098B4201D30B01C01A5241C3083D
:102F10008B4201D3CB00C01A524183088B4201D3AC
:102F20008B00C01A524143088B4201D34B00C01A98
:102F30005241411A524110007047CA0F00D0494215
:102F4000031000D34042534000229C4603098B42A9
:102F50002DD3030A8B4212D38901FC2212BA030A31
:102F60008B420CD3890192118B4208D389019211B3
:102F70008B4204D3890137D0921100E08909C3093B
:102F80008B4201D3CB01C01A524183098B4201D33A
:102F90008B01C01A524143098B4201D34B01C01A25
:102FA000524103098B4201D30B01C01A5241C3089D
:102FB0008B4201D3CB00C01A524183088B4201D30C
:102FC0008B00C01A5241D9D243088B4201D34B0027
:102FD000C01A5241411A00D201465241104663467E
:102FE0005B1000D34042704763465B1000D3404201
:102FF00001B50021004201D0C9430846C046C04681
:1030000002BD30380A2801D20120704700207047E5
:103010000000000000000000010203040607080988
:1030200000000000000000000000000000000000A0
:103030000000000000000000000000000000000090
:10304000000000000000000C000C000C000C000C44
:10305000000C000C000C000C000C000C0000000C1C
:10306000000C0000000000000000001B001B001B03
:10307000001B001B0000000000000000000000001A
:1030800000000000000000000000000000008019A7
:10309000801980198019C07FC07F80190033C07FDC
:1030A000C07F003300330033003300000000000015
:1030B0000000001E003F807580650074003C001E0B
:1030C00000078005806580658075003F001E000454
:1030D000000400000000007000D840D8C0D880D99B
:1030E00000730006000C801BC036C066C046C006D8
:1030F00080030000000000000000001E003F0033BD
:1031000000330033001E000CC03CC0668063806149
:103110008063C03E801C0000000000000000000C26
:10312000000C000C000C000C00000000000000006F
:10313000000000000000000000000000000000008F
:10314000800000010003000600060004000C000CD3
:10315000000C000C000C000C00040006000600032C
:1031600000018000002000100018000C000C00047A
:103170000006000600060006000600060004000C1B
:10318000000C0018001000200000000C002D003F73
:10319000001E0033000000000000000000000000DE
:1031A000000000000000000000000000000000001F
:1031B0000000000C000C000C000CC0FFC0FF000C55
:1031C000000C000C000C00000000000000000000DB
:1031D00000000000000000000000000000000000EF
:1031E00000000000000000000000000C000C0004C3
:1031F00000040008000000000000000000000000C3
:10320000000000000000001E001E00000000000082
:1032100000000000000000000000000000000000AE
:10322000000000000000000000000000000000009E
:103230000000000C000C0000000000000000000373
:10324000000300030006000600060006000C000C48
:10325000000C000C0018001800180000000000000E
:103260000000001E003F0033806180618061806D3E
:10327000806D8061806180610033003F001E00002E
:103280000000000000000006000E001E00360026B0
:1032900000060006000600060006000600060006FE
:1032A00000060000000000000000001E003F8073C8
:1032B00080618061800100030006000C001800306E
:1032C0000060807F807F0000000000000000001C84
:1032D000003E006300630003000E000E0003800147
:1032E000800180618073003F001E0000000000002C
:1032F00000000006000E000E001E001E0016003624
:1033000000360066807F807F000600060006000011
:10331000000000000000007F007F0060006000608F
:10332000006E007F80638001800180618073003FB8
:10333000001E0000000000000000001E003F80335F
:1033400080610060006E007F8073806180618061B9
:103350008033003F001E0000000000000000807F5E
:10336000807F80010003000300060006000C000CB3
:10337000000C0008001800180018000000000000F1
:103380000000001E003F8063806180610021001EFC
:10339000003F8061806180618061003F001E00000D
:1033A000000000000000001E003F0073806180618B
:1033B00080618073803F801D800180610073003FC9
:1033C000001E0000000000000000000000000000DF
:1033D0000000000C000C00000000000000000000D5
:1033E0000000000C000C00000000000000000000C5
:1033F0000000000000000000000C000C00000000B5
:10340000000000000000000C000C00040004000894
:10341000000000000000000080008003000E003863
:1034200000600038000E80038000000000000000F3
:103430000000000000000000000000000000807F8D
:10344000807F00000000807F807F0000000000007F
:10345000000000000000000000000000000000006C
:1034600000400070001C000780010007001C007075
:103470000040000000000000000000000000001FED
:10348000803FC071C060C000C00180030007000E13
:10349000000C000C0000000C000C000000000000FC
:1034A0000000001E003F803180718063806F806D5E
:1034B000806D806F806700600032003E001C00005D
:1034C000000000000000000E000E001B001B001B8F
:1034D000001B80318031803F803F8031C060C06000
:1034E000C0600000000000000000007C007E00635F
:1034F000006300630063007E007E00638061806182
:103500008063007F007E0000000000000000001EBD
:10351000003F8031806100600060006000600060FA
:10352000006080618031003F001E0000000000004C
:103530000000007C007F00638063806180618061A7
:1035400080618061806100630063007E007C000018
:10355000000000000000807F807F0060006000604D
:103560000060007F007F0060006000600060807F7E
:10357000807F0000000000000000807F807F0060EE
:10358000006000600060007F007F006000600060FD
:103590000060006000600000000000000000001EED
:1035A000003F803180610060006000608063806364
:1035B000806180618031803F001E000000000000BB
:1035C0000000806180618061806180618061807FB6
:1035D000807F8061806180618061806180610000A6
:1035E000000000000000003F003F000C000C000C39
:1035F000000C000C000C000C000C000C000C003F38
:10360000003F0000000000000000800180018001F8
:1036100080018001800180018001800180618061E2
:103620008073003F001E0000000000000000C0602A
:103630008061006300660066006C0078007C0066B4
:103640000066006380618061C060000000000000CF
:1036500000000060006000600060006000600060CA
:1036600000600060006000600060807F807F00007C
:10367000000000000000C071C071C07BC07AC06A49
:10368000C06AC06EC064C060C060C060C060C0601E
:10369000C06000000000000000008071807180792F
:1036A00080798079806D806D806D806580678067AE
:1036B0008067806380630000000000000000001E3F
:1036C000003F003380618061806180618061806142
:1036D000806180610033003F001E00000000000098
:1036E0000000007E007F8063806180618061806374
:1036F000007F007E006000600060006000600000ED
:10370000000000000000001E003F00338061806167
:103710008061806180618061806580670033803F67
:10372000401E0000000000000000007E007F80635B
:10373000806180618063007F007E006600630063BB
:1037400080618061C0600000000000000000000E89
:10375000001F8031803100300038001E00078003D8
:10376000806180618031003F001E00000000000089
:103770000000C0FFC0FF000C000C000C000C000C8F
:10378000000C000C000C000C000C000C000C0000E5
:1037900000000000000080618061806180618061C4
:1037A0008061806180618061806180618073003FA1
:1037B000001E0000000000000000C060C060C0608B
:1037C000803180318031001B001B001B001B000E6C
:1037D000000E000E00040000000000000000C0C049
:1037E000C0C0C0C0C0C0C0C0C0CC804C804C805ED7
:1037F0008052805280738061806100000000000070
:103800000000C0C0806080610033003B001E000CDF
:10381000000C001E001F003B80718061C0C00000D2
:10382000000000000000C0C08061806100330033F0
:10383000001E001E000C000C000C000C000C000C04
:10384000000C0000000000000000803F803F80016D
:10385000000300030006000C000C001800180030E4
:103860000060807F807F000000000000000F000FDC
:10387000000C000C000C000C000C000C000C000CE8
:10388000000C000C000C000C000C000C000F000FD2
:103890000000001800180018000C000C000C000CB0
:1038A00000060006000600060003000300030000F7
:1038B00000000000001E001E0006000600060006B4
:1038C00000060006000600060006000600060006C8
:1038D00000060006001E001E0000000C000C001E6A
:1038E000001200330033806180610000000000009E
:1038F00000000000000000000000000000000000C8
:1039000000000000000000000000000000000000B7
:10391000000000000000000000000000E0FF0000C8
:10392000000000380018000C00000000000000003B
:103930000000000000000000000000000000000087
:103940000000000000000000000000000000001F58
:10395000803F80618001801F803F80618063807F25
:10396000C03800000000000000000060006000603F
:103970000060006E007F8073806180618061806183
:103980008073007F006E0000000000000000000057
:10399000000000000000001E003F80738061006096
:1039A000006080618073003F001E00000000000086
:1039B00000008001800180018001801D803F8073B4
:1039C00080618061806180618073803F801D000024
:1039D0000000000000000000000000000000001EC9
:1039E000003F00738061807F807F00608071003FB6
:1039F000001E0000000000000000C007C00F000C07
:103A0000000C807F807F000C000C000C000C000C70
:103A1000000C000C000C0000000000000000000082
:103A200000000000801D803F8073806180618061A4
:103A300080618073803F801D80018063007F003E35
:103A400000000060006000600060006F807F807197
:103A5000806180618061806180618061806100003F
:103A60000000000000000006000600000000003E0C
:103A7000003E0006000600060006000600060006DE
:103A80000006000000000000000600060000000024
:103A9000003E003E00060006000600060006000686
:103AA0000006000600060046007E003C00000060A4
:103AB000006000600060806100630066006C007C54
:103AC0000076006300638061C060000000000000B9
:103AD0000000003E003E000600060006000600064C
:103AE00000060006000600060006000600060000AC
:103AF000000000000000000000000000000080DD69
:103B0000C0FFC0CEC0CCC0CCC0CCC0CCC0CCC0CC20
:103B1000C0CC000000000000000000000000000019
:103B20000000006F807F80718061806180618061B2
:103B300080618061806100000000000000000000E2
:103B4000000000000000001E003F80738061806163
:103B5000806180618073003F001E00000000000053
:103B60000000000000000000006E007F8073806194
:103B70008061806180618073007F006E0060006002
:103B8000006000600000000000000000801D803F19
:103B9000807380618061806180618073803F801D5F
:103BA0008001800180018001000000000000000011
:103BB00000000067803F00390030003000300030E6
:103BC0000030003000300000000000000000000065
:103BD000000000000000001E803F80610060007F48
:103BE000803F80018061007F001E00000000000017
:103BF00000000000000800180018007F007F001877
:103C000000180018001800180018801F800F00000E
:103C100000000000000000000000000000008061C3
:103C20008061806180618061806180618063807F6C
:103C3000803D0000000000000000000000000000C7
:103C40000000C060803180318031001B001B001BF0
:103C5000000E000E00060000000000000000000042
:103C600000000000000080DD80DD80DD0055005593
:103C700000550077007700220022000000000000BD
:103C800000000000000000000000806100330033ED
:103C9000001E000C000C001E003300338061000089
:103CA0000000000000000000000000008061806152
:103CB000803100330033001B001B001B000E000E80
:103CC000000E001C007C00700000000000000000DE
:103CD0000000C07FC07F800100030006000C0018B8
:103CE0000030C07FC07F000000000000800380071C
:103CF00000060006000600060006000E001C001C60
:103D0000000E00060006000600060006800780037D
:103D10000006000600060006000600060006000673
:103D20000006000600060006000600060006000663
:103D3000000600060038003C000C000C000C000CD3
:103D4000000C000E00070007000E000C000C000C19
:103D5000000C000C003C00380000000000000000D7
:103D60000000000000008038807F00470000000055
:103D70000000000000000000000000000000000043
:103D80000000000000000000000000000000000033
:103D90000000000000000000000000000000000023
:103DA0000000000000000000000000000000000013
:103DB000E003E003E003E003E003E003E003E003EB
:103DC000C003C003C001C001C001C001C0010000A8
:103DD00000000000E003E003E0030000000000003A
:103DE000000000003C1E3C1E3C1E3C1E3C1E3C1EB7
:103DF0003C1E000000000000000000000000000069
:103E000000000000000000000000000000000000B2
:103E10000000000000000000CE01CE03DE039E0380
:103E20009C039C07FF3FFF7F3807380F780F780F00
:103E3000780EFFFFFFFFF01EF01CE01CE03CE03DB1
:103E4000E03900000000000000000000FC03FE0F4D
:103E5000EE1FE01EE01EE01EE01EE01FE00FE00788
:103E6000F003FC01FE01FE01FE01FE01FE01FE0168
:103E7000FE3DFC3FF00FE001E0010000000000000B
:103E8000033E07F78FE78EE79EE3BCE3B8E7F8E76A
:103E9000F0F7E03FC001FF03FF07F307F30FF31E46
:103EA000F33CF338F3787FF03FE0000000000000BF
:103EB00000000000E007F80F780F781F781F781FC8
:103EC000780FF00FE00F801FC37FC3FBE7F3F7F11C
:103ED000F7F0FFF07FF03EF87F7CFF3FEF1F000020
:103EE0000000000000000000E003E003E003E00346
:103EF000E003C003C001000000000000000000005B
:103F000000000000000000000000000000000000B1
:103F10000000000000000000000000003F007C00E6
:103F2000F001E001C003C00780078007800F000F89
:103F3000000F000F000F000F000F800F8007800799
:103F4000C007C003E001F0017C003F000F0000004B
:103F5000007E001FC007C003E001F001F000F00088
:103F6000F800780078007800780078007800F80091
:103F7000F000F000F001E001C003C007001F007E68
:103F800000780000E003C003C001CE39FF3F7F3F4F
:103F900020037003F807780F3C1F3806000000006C
:103FA0000000000000000000000000000000000011
:103FB0000000000000000000000000000000000001
:103FC00000000000C001C001C001C001C001C0016B
:103FD000C001FFFFFFFFC001C001C001C001C0015F
:103FE000C001000000000000000000000000000010
:103FF00000000000000000000000000000000000C1
:104000000000000000000000000000000000E003CD
:10401000E003E003E003E001E001E001C001800310
:104020000000000000000000000000000000000090
:10403000000000000000FE3FFE3F00000000000006
:104040000000000000000000000000000000000070
:104050000000000000000000000000000000000060
:104060000000000000000000000000000000000050
:10407000000000000000E003E003E003E0030000B4
:1040800000000000000000000F000F001E001E00D6
:104090003C003C0078007800F000F000E001E00116
:1040A000C003C00380078007000F000F001E001E22
:1040B000003C003C0078007800F00000F007F80FAA
:1040C0007C1F3E3E1E3C1F7C1F7C0F780F780F78B4
:1040D0000F780F780F780F781F7C1F7C1E3C3E3EB8
:1040E0007C1FF80FF0070000000000000000000037
:1040F000F000F007F03FF03FF001F001F001F001B7
:10410000F001F001F001F001F001F001F001F00127
:10411000F001F001F001FF3FFF3F00000000000050
:1041200000000000E00FF83F7C3C3C003E003E00F9
:104130003E003C003C007C00F800F001E003C007BA
:104140008007000F001E003E003CFE3FFE3F0000C7
:104150000000000000000000F00FF81F7C1C3E0073
:104160003E003E003C003C00F800F00FF80F7C00E1
:104170003E001E001E001E001E003E007C1CF81F9C
:10418000E01F000000000000000000007800F800C0
:10419000F800F801F803F807F807780F781E781E82
:1041A000783C78787878FFFFFFFF78007800780017
:1041B0007800780078000000000000000000000097
:1041C000FC1FFC1FFC1F001E001E001E001E001E08
:1041D000E01FF81FFC007C003E003E001E003E0079
:1041E0003E003C007C1CF81FE01F000000000000A7
:1041F00000000000FC01FE078E0F001F001E003EA5
:10420000003C003CF83DFC3F3E7F1F7E0F3C0F3CD6
:104210000F3C0F3C0F3E1F1E3E1FFC0FF003000023
:104220000000000000000000FF3FFF3FFF3F0F00C5
:104230001E001E003C0038007800F000F000E00195
:10424000E001C003C0038007800F800F000F001F34
:10425000001F00000000000000000000F807FC0F35
:104260003E1F1E1E1E3E1E3E1E1E3C1FF80FF00768
:10427000F80FFC1E3E3E1F3C1F7C0F7C0F7C1F3C3A
:104280003E3FFC1FF007000000000000000000009F
:10429000F007F80F7C1E3E3C1E3C1F7C1F7C1F7CE1
:1042A0001F7C1F3C3F3EFF1FEF071F001E001E002C
:1042B0003E003C00F838F03FE01F00000000000026
:1042C00000000000000000000000000000000000EE
:1042D000E003E003E003E003000000000000000052
:1042E000000000000000E003E003E003E003000042
:1042F00000000000000000000000000000000000BE
:1043000000000000E003E003E003E0030000000021
:1043100000000000000000000000E003E003E003F4
:10432000E003E001E001E001C003800300000000C1
:10433000000000000000000003000F003F00FC0030
:10434000F003C00F003F00FE003FC00FF003FC0071
:104350003F000F000300000000000000000000000C
:10436000000000000000000000000000000000004D
:1043700000000000FFFFFFFF000000000000FFFF43
:10438000FFFF00000000000000000000000000002F
:10439000000000000000000000000000000000001D
:1043A00000E000F8007E801FE007F8017E001F009B
:1043B0007E00F801E007801F007E00F800E00000AA
:1043C0000000000000000000F01FFC3F3E381F38D6
:1043D0001F381E001E003C007800F000E001C00302
:1043E000C003C007C007000000000000C007C007EE
:1043F000C00700000000000000000000F803FE0FEE
:104400001E1F0F3E7F3CFF78EF79C773C7F38FF312
:104410008FF38FF39FF39FF3FF73FF7BF779003CDC
:104420001C1FFC0FF803000000000000000000004B
:10443000000000000000E003E003F007F007F007D1
:10444000780F780F7C0E3C1E3C1E3E3CFE3FFF3F2B
:104450001F780F780FF007F007F000000000000051
:1044600000000000000000000000F83FFC3F3E3C60
:104470001E3C1E3C1E3C3E3C7C3CF03FF83F7E3CDC
:104480001F3C1F3C0F3C0F3C1F3CFE3FF83F000011
:104490000000000000000000000000000000FF011C
:1044A000FF07871F003E003C007C00780078007802
:1044B00000780078007C007C003E003F831FFF07EF
:1044C000FF010000000000000000000000000000EC
:1044D0000000F07FFC7F7E781F781F780F780F78C0
:1044E0000F780F780F780F780F780F781F781E7875
:1044F0007E78F87FE07F00000000000000000000F0
:10450000000000000000FF3FFF3F003E003E003E75
:10451000003E003E003EFE3FFE3F003E003E003EAD
:10452000003E003E003EFF3FFF3F00000000000055
:1045300000000000000000000000FF1FFF1F001E21
:10454000001E001E001E001E001EFF1FFF1F001E7B
:10455000001E001E001E001E001E001E001E000089
:104560000000000000000000000000000000FE034A
:10457000FF0F871F003E007C007C007800F800F8E9
:104580007FF87FF80F780F7C0F7C0F3E8F1FFF0F97
:10459000FE0300000000000000000000000000001A
:1045A00000001F7C1F7C1F7C1F7C1F7C1F7C1F7CCE
:1045B0001F7CFF7FFF7F1F7C1F7C1F7C1F7C1F7C5D
:1045C0001F7C1F7C1F7C000000000000000000001A
:1045D000000000000000FF3FFF3FE003E003E003B6
:1045E000E003E003E003E003E003E003E003E003B3
:1045F000E003E003E003FF3FFF3F00000000000096
:1046000000000000000000000000FC1FFC1F7C00F8
:104610007C007C007C007C007C007C007C007C00BA
:104620007C007C0078007800F838F03FC03F000044
:1046300000000000000000000000000000001F3C1F
:104640001E3C3C3C783CF03CE03DE03FC03F803FBE
:10465000C03FE03FF03DF03C783C7C3C3E3C1F3CA2
:104660000F3C0000000000000000000000000000FF
:104670000000003E003E003E003E003E003E003E88
:10468000003E003E003E003E003E003E003E003E3A
:10469000003EFF3FFF3F0000000000000000000060
:1046A0000000000000001FF81FFC1FFC3FFE3FFE43
:1046B0003FFE7FFF77FF77FFF7F7E7F7E7F3E7F3D3
:1046C000C7F307F007F007F007F000000000000054
:1046D000000000000000000000000F7C0F7C0F7E37
:1046E0000F7F0F7F8F7F8F7FCF7FEF7BEF79FF79FA
:1046F000FF78FF787F783F783F781F781F78000039
:104700000000000000000000000000000000F007B2
:10471000FC1F3E3E1F7C0F780F780FF80FF80FF844
:104720000FF80FF80FF80F780F781F7C3E3EFC1F34
:10473000F007000000000000000000000000000082
:104740000000FC3FFF3F1F3E0F3E0F3E0F3E0F3E5F
:104750001F3E3F3EFC3FF03F003E003E003E003E1D
:10476000003E003E003E000000000000000000008F
:10477000000000000000F007FC1F3E3E1F7C0F7889
:104780000F780FF80FF80FF80FF80FF80FF80F78F1
:104790000F781F7C3E3EFC1FF8077C003F000F0097
:1047A00003000000000000000000F03FFC3F7E3CE2
:1047B0003E3C1E3C1E3C3E3C3C3CFC3CF03FE03F53
:1047C000F03DF83C7C3C3E3C1E3C1F3C0F3C000056
:1047D0000000000000000000000000000000FC07D6
:1047E000FE1F0E3E003C003C003C003EC01FF80F88
:1047F000FE037F001F000F000F001F203E3CFC3F08
:10480000F01F000000000000000000000000000099
:104810000000FFFFFFFFE003E003E003E003E0032D
:10482000E003E003E003E003E003E003E003E00370
:10483000E003E003E00300000000000000000000CF
:104840000000000000000F7C0F7C0F7C0F7C0F7CB1
:104850000F7C0F7C0F7C0F7C0F7C0F7C0F7C0F7C00
:104860001E3C1E3C3E3EFC1FF00700000000000006
:104870000000000000000000000007F007F007F84B
:104880000F780F7C1E3C1E3C1E3E3C1E3C1F781FBA
:10489000780FF80FF007F007F007E003E0030000DF
:1048A000000000000000000000000000000003E025
:1048B00003F003F007F0E7F3E7F3E7F3E773F77BC1
:1048C000F77FFF7F7F7F7F7F7E7F7E3F3E3E3E3E46
:1048D0003E3E00000000000000000000000000005C
:1048E000000007F80F7C1E3E3E3E3C1FF80FF0070D
:1048F000E007E003E003F007F80F7C0F7C1E3E3C6E
:104900001F780F780FF0000000000000000000008A
:1049100000000000000007F807780F7C1E3C1E3ED8
:104920003C1F780FF80FF007E003E003E003E0031B
:10493000E003E003E003E003E00300000000000008
:1049400000000000000000000000FF7FFF7F0F005C
:104950001F003E007C00F800F000E001E003C0070B
:10496000800F000F001E003E007CFF7FFF7F0000D5
:104970000000000000000000FF078007800780079C
:1049800080078007800780078007800780078007EF
:1049900080078007800780078007800780078007DF
:1049A000800780078007FF07FF0700000078007876
:1049B000003C003C001E001E000F000F8007800717
:1049C000C003C003E001E001F000F00078007800CF
:1049D0003C003C001E001E000F000F0007000000FE
:1049E000F07FF000F000F000F000F000F000F000C8
:1049F000F000F000F000F000F000F000F000F00037
:104A0000F000F000F000F000F000F000F000F07FA7
:104A1000F07F0000C000C001C001E003E003F00728
:104A2000F0077807780F380F3C1E3C1E1E3C1E3CDA
:104A30000F380F7807780000000000000000000029
:104A40000000000000000000000000000000000066
:104A50000000000000000000000000000000000056
:104A60000000000000000000000000000000000046
:104A70000000FFFFFFFF000000000000F00000004A
:104A80000000000000000000000000000000000026
:104A90000000000000000000000000000000000016
:104AA0000000000000000000000000000000000006
:104AB000000000000000000000000000F80FFC3FB4
:104AC0007C3C3E003E003E00FE07FE1F3E3E3E7C1C
:104AD0003E783E7C7E7CFF3FCF1F00000000000040
:104AE00000000000003C003C003C003C003C003C5E
:104AF000F83DFE3F3E3F1F3E0F3C0F3C0F3C0F3C3E
:104B00000F3C0F3C1F3C1E3C3E3FFC3FF03B000077
:104B10000000000000000000000000000000000095
:104B200000000000FE03FF0F871F003E003E003C18
:104B3000007C007C007C003C003E003E871FFF0F95
:104B4000FE03000000000000000000001F001F0026
:104B50001F001F001F001F00FF07FF1F3F3E1F3CDD
:104B60001F7C1F7C1F7C1F781F781F7C1F7C3F3C95
:104B70007F3EFF1FDF0F000000000000000000006C
:104B8000000000000000000000000000F803FC0F1F
:104B90003E1F1E3E1F3C1F7CFF7FFF7F007C007C72
:104BA000003C003E071FFF0FFE0300000000000056
:104BB00000000000FF01E103C003C007C007C007F9
:104BC000FF7FFF7FC007C007C007C007C007C0073F
:104BD000C007C007C007C007C007C007C007000064
:104BE00000000000000000000000000000000000C5
:104BF00000000000EF07FF1F7F3E1F3C1F7C1F7C53
:104C00001F781F781F781F7C1F7C3F3C7F3EFF1F53
:104C1000DF0F1E001E001E007C38F83F003C003CE9
:104C2000003C003C003C003CFC3DFE3F9E3F1F3FE3
:104C30001F3E1F3C1F3C1F3C1F3C1F3C1F3C1F3C9A
:104C40001F3C1F3C1F3C0000000000000000000053
:104C5000F001F0010000000000000000E07FE07FB4
:104C6000E001E001E001E001E001E001E001E0013C
:104C7000E001E001E001E001E001000000000000CF
:104C800000000000F800F800000000000000000034
:104C9000F83FF83FF800F800F800F800F800F800D6
:104CA000F800F800F800F800F800F800F800F80044
:104CB000F800F000F071E07F003C003C003C003C5C
:104CC000003C003C1F3C3E3C7C3CF83CF03DE03D61
:104CD000C03FC03FE03FF03DF83C7C3C3E3C1F3CC9
:104CE0001F3C00000000000000000000F07FF00109
:104CF000F001F001F001F001F001F001F001F0012C
:104D0000F001F001F001F001F001F001F001F0011B
:104D1000F001F001F00100000000000000000000C0
:104D20000000000000000000000000009EF7FFFFF0
:104D3000FFFFFFFFE7FBE7F9C7F1C7F1C7F1C7F1D5
:104D4000C7F1C7F1C7F1C7F1C7F1000000000000CB
:104D50000000000000000000000000000000000053
:104D6000FC3DFE3F9E3F1F3F1F3E1F3C1F3C1F3C24
:104D70001F3C1F3C1F3C1F3C1F3C1F3C1F3C0000B6
:104D80000000000000000000000000000000000023
:104D900000000000F007FC1F3E3E1F3C1F7C0F7808
:104DA0000F780F780F780F781F7C1F3C3E3EFC1F5A
:104DB000F0070000000000000000000000000000FC
:104DC0000000000000000000F83DFE3F3E3F1F3E97
:104DD0000F3C0F3C0F3C0F3C0F3C0F3C1F3C1E3E5A
:104DE0003E3FFC3FF83F003C003C003C003C003CA8
:104DF000000000000000000000000000EE07FE1FA1
:104E00007E3E1E3C1E7C1E781E781E781E781E7804
:104E10001E7C3E7C7E3EFE1FDE0F1E001E001E001E
:104E20001E001E0000000000000000000000000046
:104E30007F1FFF1FE71FC71F871F001F001F001FC7
:104E4000001F001F001F001F001F001F001F000089
:104E50000000000000000000000000000000000052
:104E600000000000FC07FE1F0E1E003E003E003F3B
:104E7000E01FFC07FE003E001E001E003E3CFC3F03
:104E8000F01F000000000000000000000000000013
:104E90000000800780078007FF7FFF7F8007800773
:104EA00080078007800780078007800780078007CA
:104EB000C007FF03FF010000000000000000000029
:104EC0000000000000000000000000001E3C1E3C2E
:104ED0001E3C1E3C1E3C1E3C1E3C1E3C1E3C1E3C02
:104EE0003E3C7E3CFE3EFE1FDE0F00000000000048
:104EF00000000000000000000000000000000000B2
:104F000007F00F780F781E3C1E3C1E3E3C1E3C1ED8
:104F1000780F780FF00FF007F007E003E0030000D0
:104F20000000000000000000000000000000000081
:104F30000000000003F0E3F1E3F3E7F3F7F3F7F326
:104F4000F77F777F7F7F7F7F7F7F3E3E3E3E3E3E87
:104F50003E3E0000000000000000000000000000D5
:104F600000000000000000000F7C1E3E3C3E3C1F85
:104F7000F80FF007F007E003F007F807F80F7C1EC2
:104F80003E3E1F3C1F7800000000000000000000B3
:104F900000000000000000000000000007F80F788B
:104FA0000F7C1E3C1E3C3C1E3C1E3C1F780FF80F25
:104FB000F007F007E003E003C003C003C00380076D
:104FC000800F007F000000000000000000000000D3
:104FD000FF3FFF3F1F003E007C00F800F001E003B0
:104FE000C007800F001F001E003CFF7FFF7F0000F6
:104FF0000000000000000000FE01E003C003C00349
:10500000C003C003E001E001E001C001C003803F34
:10501000803FC003C001E001E001E001C003C00324
:10502000C003C003E003FE017E000000C001C00118
:10503000C001C001C001C001C001C001C001C00168
:10504000C001C001C001C001C001C001C001C00158
:10505000C001C001C001C001C001C001C001000009
:10506000C03FE003E001E001E001E001C001C00356
:10507000C003C001E001FE00FE00E001C001C0036A
:10508000C003C001E001E001E001E001E003C03F36
:10509000003F0000000000000000000000000000D1
:1050A00000000000000000000000073FC77FE7731A
:1050B000FFF17EF000000000000000000000000092
:1050C00000000000000000000000000000000000E0
:1050D00000000000000000000000000000100010B0
:1050E0000010001000100010000000100000000070
:1050F0000028002800280000000000000000000038
:105100000000000000240024007C00240048007CF3
:1051100000480048000000000038005400500038EB
:105120000014005400540038001000000020005407
:10513000005800300028005400140008000000004F
:1051400000100028002800100034004800480034F7
:10515000000000000010001000100000000000001F
:1051600000000000000000000008001000200020E7
:105170000020002000200020001000080020001067
:1051800000080008000800080008000800100020BF
:10519000001000380010002800000000000000008F
:1051A000000000000000000000100010007C001053
:1051B00000100000000000000000000000000000DF
:1051C00000000000000000100010001000000000AF
:1051D0000000000000000038000000000000000097
:1051E00000000000000000000000000000000010AF
:1051F000000000000008000800100010001000105F
:10520000002000200000000000380044004400544A
:10521000004400440044003800000000001000304A
:1052200000500010001000100010001000000000DE
:105230000038004400440004000800100020007CF6
:1052400000000000003800440004001800040004BE
:105250000044003800000000000800180028002862
:105260000048007C0008000800000000007C0040AE
:1052700000400078000400040044003800000000F2
:1052800000380044004000780044004400440038E6
:1052900000000000007C0004000800100010002046
:1052A00000200020000000000038004400440038C6
:1052B000004400440044003800000000003800446E
:1052C00000440044003C000400440038000000009A
:1052D00000000000001000000000000000000010AE
:1052E00000000000000000000000001000000000AE
:1052F000000000100010001000000000000C003042
:1053000000400030000C0000000000000000000021
:105310000000007C0000007C000000000000000095
:105320000000000000600018000400180060000089
:1053300000000000003800440004000800100010C5
:10534000000000100000000000380044004C005431
:10535000005C004000400038000000000010002801
:10536000002800280028007C0044004400000000C1
:105370000078004400440078004400440044007871
:1053800000000000003800440040004000400040A1
:105390000044003800000000007000480044004451
:1053A000004400440048007000000000007C004001
:1053B0000040007C004000400040007C00000000F5
:1053C000007C004000400078004000400040004069
:1053D000000000000038004400400040005C004431
:1053E0000044003800000000004400440044007CF9
:1053F0000044004400440044000000000038001055
:105400000010001000100010001000380000000014
:1054100000040004000400040004000400440038F8
:1054200000000000004400480050006000500048A8
:1054300000480044000000000040004000400040E0
:10544000004000400040007C000000000044006C70
:10545000006C00540044004400440044000000007C
:1054600000440064006400540054004C004C0044AC
:1054700000000000003800440044004400440044A0
:10548000004400380000000000780044004400445C
:105490000078004000400040000000000038004458
:1054A000004400440044004400540038000400005C
:1054B000007800440044004400780048004800445C
:1054C00000000000003800440040003000080004E4
:1054D0000044003800000000007C001000100010A4
:1054E00000100010001000100000000000440044F4
:1054F0000044004400440044004400380000000020
:105500000044004400440028002800280010001037
:105510000000000000440044005400540054006C9B
:105520000028002800000000004400280028001087
:10553000001000280028004400000000004400443F
:1055400000280028001000100010001000000000CB
:10555000007C000400080010001000200040007CC7
:1055600000000000001800100010001000100010D3
:105570000010001000100018002000200010001083
:1055800000100010000800080000000000300010AB
:10559000001000100010001000100010001000306B
:1055A0000010002800280044000000000000000057
:1055B00000000000000000000000000000000000EB
:1055C00000000000000000FE0020001000000000AD
:1055D00000000000000000000000000000000000CB
:1055E00000380044003C0044004C0034000000003F
:1055F000004000400058006400440044006400582B
:10560000000000000000000000380044004000409E
:105610000044003800000000000400040034004C86
:1056200000440044004C0034000000000000000072
:1056300000380044007C00400044003800000000B6
:10564000000C0010007C0010001000100010001072
:1056500000000000000000000034004C0044004442
:10566000004C003400040078004000400058006402
:10567000004400440044004400000000001000000A
:10568000007000100010001000100010000000005A
:10569000001000000070001000100010001000103A
:1056A000001000E000400040004800500060005042
:1056B00000480044000000000070001000100010BE
:1056C000001000100010001000000000000000009A
:1056D00000780054005400540054005400000000AE
:1056E00000000000005800640044004400440044EE
:1056F00000000000000000000038004400440044A6
:105700000044003800000000000000000058006461
:1057100000440044006400580040004000000000C5
:105720000034004C00440044004C003400040004E9
:1057300000000000005800640040004000400040AD
:1057400000000000000000000038004400300008A5
:1057500000440038000000000020002000780020F5
:1057600000200020002000180000000000000000C1
:105770000044004400440044004C00340000000099
:105780000000000000440044002800280028001009
:105790000000000000000000005400540054006CA1
:1057A000002800280000000000000000004400283D
:1057B000001000100028004400000000000000005D
:1057C0000044004400280028001000100010006071
:1057D00000000000007C0008001000200040007C59
:1057E0000000000000180010001000100020002031
:1057F0000010001000100018001000100010001021
:1058000000100010001000100010001000300010F8
:1058100000100010000800080010001000100030F8
:105820000000000000000074004C000000000000B8
:1058300000000000030406080C10182030436E74AA
:105840003D25316400000000685800080000002079
:10585000280000001C0100089058000828000020C3
:10586000C80B00003C01000801000000040000001B
:105870000B12000020300008101A00007C3D0008C8
:10588000070A0000C85000080000200000000000C7
:04000005080000C12E
:00000001FF
