:020000040800F2
:100000000020002095520008A1510008A5510008C9
:1000100000000000000000000000000000000000E0
:10002000000000000000000000000000A9510008CE
:100030000000000000000000AD510008B1510008B0
:10004000E5520008E5520008E5520008E5520008B4
:10005000E5520008E5520008E5520008E5520008A4
:10006000E5520008E5520008E5520008E552000894
:10007000E5520008E552000800000000E5520008C3
:1000800000000000B951000800000000000000005E
:10009000C951000800000000E5520008E5520008C0
:1000A000E5520008E5520008E5520008E552000854
:1000B000E5520008E5520008E5520008E552000844
:1000C00010B5064C2378002B07D1054B002B02D02E
:1000D000044800E000BF0123237010BDF0010020A0
:1000E00000000000E8A70008044B10B5002B03D067
:1000F0000349044800E000BF10BDC04600000000F6
:10010000F4010020E8A700080023C25C0133002AA4
:10011000FBD1581E7047000002B4714649084900DF
:10012000095C49008E4402BC7047C04603B4714666
:10013000490840004900095E49008E4403BC7047ED
:10014000002243088B4274D303098B425FD3030A16
:100150008B4244D3030B8B4228D3030C8B420DD329
:10016000FF22090212BA030C8B4202D312120902B7
:1001700065D0030B8B4219D300E0090AC30B8B42F5
:1001800001D3CB03C01A5241830B8B4201D38B03A3
:10019000C01A5241430B8B4201D34B03C01A524148
:1001A000030B8B4201D30B03C01A5241C30A8B428B
:1001B00001D3CB02C01A5241830A8B4201D38B0276
:1001C000C01A5241430A8B4201D34B02C01A52411A
:1001D000030A8B4201D30B02C01A5241CDD2C3098C
:1001E0008B4201D3CB01C01A524183098B4201D308
:1001F0008B01C01A524143098B4201D34B01C01AF3
:10020000524103098B4201D30B01C01A5241C3086A
:100210008B4201D3CB00C01A524183088B4201D3D9
:100220008B00C01A524143088B4201D34B00C01AC5
:100230005241411A00D20146524110467047FFE731
:1002400001B5002000F0F0F802BDC0460029F7D04B
:1002500076E7704703460B437FD4002243088B4266
:1002600074D303098B425FD3030A8B4244D3030B3D
:100270008B4228D3030C8B420DD3FF22090212BA02
:10028000030C8B4202D31212090265D0030B8B427E
:1002900019D300E0090AC30B8B4201D3CB03C01A68
:1002A0005241830B8B4201D38B03C01A5241430B43
:1002B0008B4201D34B03C01A5241030B8B4201D333
:1002C0000B03C01A5241C30A8B4201D3CB02C01A9E
:1002D0005241830A8B4201D38B02C01A5241430A16
:1002E0008B4201D34B02C01A5241030A8B4201D305
:1002F0000B02C01A5241CDD2C3098B4201D3CB01AC
:10030000C01A524183098B4201D38B01C01A52415A
:1003100043098B4201D34B01C01A524103098B425E
:1003200001D30B01C01A5241C3088B4201D3CB0049
:10033000C01A524183088B4201D38B00C01A52412C
:1003400043088B4201D34B00C01A5241411A00D2DC
:1003500001465241104670475DE0CA0F00D0494245
:10036000031000D34042534000229C4603098B42B5
:100370002DD3030A8B4212D3FC22890112BA030A3D
:100380008B420CD3890192118B4208D389019211BF
:100390008B4204D389013AD0921100E08909C30944
:1003A0008B4201D3CB01C01A524183098B4201D346
:1003B0008B01C01A524143098B4201D34B01C01A31
:1003C000524103098B4201D30B01C01A5241C308A9
:1003D0008B4201D3CB00C01A524183088B4201D318
:1003E0008B00C01A5241D9D243088B4201D34B0033
:1003F000C01A5241411A00D20146634652415B1075
:10040000104601D34042002B00D549427047634655
:100410005B1000D3404201B5002000F005F802BD9A
:100420000029F8D016E770477047C0468446100090
:1004300062468C461900634600E0C0461FB501F0D5
:100440004BFC002801D40021C8421FBD10B501F0AB
:100450008BFB4042013010BD10B501F03DFC00287F
:1004600001DB002010BD012010BDC04610B501F019
:1004700033FC002801DD002010BD012010BDC04666
:1004800010B501F0B5FB002801DC002010BD0120F3
:1004900010BDC04610B501F0ABFB002801DA00200A
:1004A00010BD012010BDC046844608006146FFE72C
:1004B0001FB500F04FFB002801D40021C8421FBD2A
:1004C00010B500F0CFFA4042013010BD10B500F079
:1004D00041FB002801DB002010BD012010BDC046FB
:1004E00010B500F037FB002801DD002010BD012011
:1004F00010BDC04610B500F0DDFA002801DC002078
:1005000010BD012010BDC04610B500F0D3FA002880
:1005100001DA002010BD012010BDC046002B11D112
:10052000002A0FD1002900D1002802D00021C943A0
:10053000080007B4024802A14018029003BDC0465B
:10054000E9FEFFFF03B4684601B5029800F034F8F5
:10055000019B9E4602B00CBC7047C046F0B5CE462B
:100560009946030C9C46130447461B0C1D000E00C5
:1005700061460404240C80B50700100C4B4365430E
:10058000414360432C0CC01824188C46A34203D965
:1005900080235B029846C444494679435643230C62
:1005A0002D042D0C8919634424046019C918C0BC9A
:1005B000B946B046F0BDC046F0B557464E46454632
:1005C000DE46E0B504000D009246994683B08B42AA
:1005D00030D82DD04946504602F0EEFB29000600E7
:1005E000200002F0E9FB331A9846203B34D49B46A6
:1005F00053465A46934042461F00534693401E00BE
:10060000AF423BD8AF4200D179E05B46A41BBD416D
:10061000002B00DA76E000220023009201930123F0
:100620005A4693400193012342469340009329E0A8
:100630008242CFD900220023009201930C9B002B11
:1006400001D01C605D600098019903B0F0BCBB460E
:10065000B246A946A046F0BD42469B4620239B1ABF
:100660005246DA40414613004A468A401700424645
:100670001F43534693401E00AF42C3D900220023BC
:10068000009201934346002BD8D0FB0772081A430F
:1006900046467B080EE0AB4201D1A2420CD8A41A18
:1006A0009D41012024196D410021013E24184D4136
:1006B000002E06D0AB42EED9013E24196D41002E2A
:1006C000F8D1009801995B4600196941002B24DBA1
:1006D0002B005A464446D3402A00E2401C005B46A9
:1006E0001500002B2ADB26009E40330026004746DB
:1006F000BE403200801A9941009001919EE7A342CA
:10070000BCD882E74246202300219B1A0022009198
:1007100001920122DA40019285E7424620239B1A8A
:100720002A0046469A402300F340444613432A00D9
:10073000E2401C005B461500002BD4DA42462F0035
:100740002023260097409B1ADE403B003343CDE731
:10075000F8B5CE46474643025A0A4E024500C40F3A
:10076000480091462D0E720A000E944680B59B09F2
:10077000C90FB6092A1A8C4221D0002A0DDD0028A3
:100780002DD1002E00D18DE0511E012A00D11DE196
:10079000FF2A00D1ABE00A0027E0002A4DD0421B1F
:1007A000002D00D0CCE0002B00D179E0541E012AAE
:1007B00000D128E1FF2A00D197E02200C5E0002AFD
:1007C00000DC96E000284FD0FF2D00D18FE0802183
:1007D000C9040E431B2A51DD2A00013318E0FF2D06
:1007E00000D184E08021C9040E4301211B2A08DCCA
:1007F00031002020D140821A96403200501E8241A2
:1008000011435B1A5A0159D407212A00194049D0D3
:100810000F211940042900D00433590142D5501C3E
:10082000FE2A3AD09B01C0B25B0AC0051843E40718
:100830002043C0BCB946B046F8BDFE2080466F1CC0
:1008400038004746074200D08EE0002D00D0B4E0CB
:10085000002B00D1DBE0002E6CD0981B450100D4AA
:10086000F7E00C00F31A3DE0002E1BD0511E012AC8
:1008700000D182E0FF2A3AD00A00ABE73100202005
:10088000D140821A96403200501E82410A439B1882
:100890005A01B9D56A1CFE2D75D1FF200023C4E78B
:1008A0000C003300DB08FF2A46D1002BF5D0802254
:1008B000D20313435B02FF205B0AB6E79F01BF0927
:1008C000380002F05BFA05388740854224DC3B00A3
:1008D0002021421B0132D3408A1A97407A1E974149
:1008E00000223B43590793D197E70C003300DB0804
:1008F000DBE7002A14D0421B002D4BD1002BD0D0B7
:10090000511E012A00D19EE0FF2AEFD00A001B2AC7
:100910005FDD0200731C7BE7504B2A1A3B40E1E786
:10092000FE216A1C11423BD1002D5DD1002B7FD0EE
:10093000002E7FD10022DB085B025B0AD0B274E795
:10094000FF28D2D08024E404234301241B2A07DC9F
:100950001C002025D440AA1A93405A1E93411C43E0
:10096000331B05000C004DE79F1B7A0122D4002F9A
:10097000A6D100240020002357E79B19012501324E
:10098000590100D440E70121354819405B08034074
:100990000B43A7E7FF28A9D08021C9040B43B6E782
:1009A000FF2A00D179E79B195B08590700D02FE790
:1009B000DB08C1E70C00F71A82E7002B2CD1002ED0
:1009C00093D180230024FF20DB032EE701259B1B0E
:1009D00018E719002025D140AA1A93405A1E9341C6
:1009E0000B4305009B1953E7002B00D17EE7002E37
:1009F00000D17CE78022D203914502D3944500D2F6
:100A00003300DB0853E70C00F31A0135FAE6002E39
:100A1000AFD00C0033008DE7002E00D167E78022B5
:100A2000D2039145EDD39445EBD20C003300E8E7B7
:100A300033007FE79B1900225901B9D5074A1340BB
:100A4000DB08012278E79B190132013559019AD45C
:100A5000DAE6031E8DD0DB086EE7C046FFFFFFFB22
:100A6000FFFFFF7D70B542004E024C0045026D0A4B
:100A7000120EC30F760A240EC90FFF2A10D0FF2CC6
:100A80000CD00120A2420AD1B54208D18B420FD02E
:100A9000002A04D12800431E984100E0012070BDC7
:100AA0000120FF2CFBD13543F9D14B401800F6E76C
:100AB0000020F4E730B5420044024D02C30F480065
:100AC000640A120E6D0A000EC90FFF2A19D0FF2802
:100AD0000BD0002A1ED100280BD1002D27D0002CCE
:100AE00034D100292FD0080030BD002D28D1002A94
:100AF00001D1002CF5D08B4207D1002B23D0180058
:100B0000F2E7002C1CD1FF2814D0581E02231840F5
:100B10000138E9E70028F8D08B42F6D18242F4DCB4
:100B2000EBDBAC42F1D80020AC42DDD2E5E7002C93
:100B3000DAD0EAE7002D03D18B42E6D10020D3E7DB
:100B400002204042D0E701204042CDE78B42E8D06E
:100B5000DBE7C04630B5420044024D02C30F4800F7
:100B6000640A120E6D0A000EC90FFF2A1AD0FF2860
:100B70000ED0002A1ED100280ED1002D2AD0002C24
:100B80000CD08B421DD0581E02231840013810E0B3
:100B9000002D0DD1002A20D1002C1ED1002923D0F8
:100BA000080006E0002C03D1FF28ECD1002D17D05F
:100BB000022030BD0028E6D08B42E4D18242E2DC44
:100BC00004DBAC42DFD80020AC42F2D2002B0BD0C9
:100BD0001800EEE7002CECD0D5E78B42D3D1F5E737
:100BE00000208B42E5D0CEE701204042E1E7C0463D
:100BF000F0B54F464646D64643025B0A4500C0B5AF
:100C000099460F1C2D0EC60F002D00D188E0FF2D38
:100C100000D18DE08022DB00D2041A4300239146EC
:100C200098469A467F3D7C027B00640A1B0EFF0FAC
:100C3000002B68D0FF2B21D08022E400D204144383
:100C400042467F3B5B1900215D1C0A2A2EDC7E4058
:100C50004246022A23DC013A012A00D9BDE00229DA
:100C60006ED001292CD100200022C005F6071043C8
:100C70003043E0BCBA46B146A846F0BD2B00FF3376
:100C8000002C65D0032241461143320001358846CD
:100C90007A40FF350A2900DDD8E0160003214046DE
:100CA00001228240A620C000024220D05346022BDF
:100CB00046D0032B00D1BBE051464C460129D2D08F
:100CC0002B007F33002B70DD620704D00F222240FF
:100CD000042A00D00434220103D5634B1C402B00AE
:100CE0008033FE2B2CDCA201520AD8B2BDE7902043
:100CF0008000024227D1B938FF3810426DD03E0043
:100D0000A1468A46D2E7002C41D1012342461A432C
:100D100090462B00424601215D1C0A2A97DDC5E75B
:100D2000002B26D104239846033B00259A467AE7F8
:100D3000002B18D108239846063BFF259A4672E7F8
:100D4000FF20002291E780220026FF20D2038CE7BB
:100D500041460222013511438846FF350A29A5DCA8
:100D600002217E4074E70C239846093BFF259A46F2
:100D700059E7180002F002F84A46431F76259A40C8
:100D800000236D42914698469A462D1A4BE7200063
:100D900001F0F4FF4246431F9C402B1A763B002192
:100DA0005D1C0A2A00DC52E780E70122D31A1B2BC4
:100DB00000DD58E79E352200AC40DA40631E9C41BE
:100DC0002243530704D00F231340042B00D00432D6
:100DD000530137D50120002247E7210C4A4624045D
:100DE000240C2700100C1204120C444357434843B0
:100DF00051433A0C09195218944203D980214902EF
:100E00008C4660443F0411043F0CC9198C01671ED5
:100E1000BC41120C890E12180C43920114431201AA
:100E20000ED5012362081C40144349E73E00A14649
:100E300080224B46D2031A435202FF20520A14E783
:100E40001D003DE792010020520A0EE70F29EDD167
:100E500080224B46D2031342EAD01442E8D13E002E
:100E6000FF20224301E7C046FFFFFFF7F0B55746DA
:100E70004E464546DE46E0B583B0009001910C0336
:100E80004F00CE0F610A009C1D03640F0C430099B4
:100E900000920193C80059004B0D9946009A019B9E
:100EA0006D0AD90F530F2B439A46009B7F0DDA0032
:100EB00094464A46B046BA1A8E4200D1B0E0002AA3
:100EC00000DC78E04946002900D1E9E0C9498F42B9
:100ED00000D195E10125382A16DC8021534609040A
:100EE0000B439A461F2A00DDE7E1202155468B1A65
:100EF00061469D40D1400D43614699404B1E99414A
:100F00005346D3400D43E41A451BA842804140425A
:100F1000241A230200D40FE16402640A002C00D1D9
:100F200039E1200001F02AFF0300083B20212800BE
:100F3000CA1AD0409C4002009D4022439F4200DDDF
:100F400073E1D81B0130091A2C008D40C4406B1E80
:100F50009D411300C2408B402543002714001D43D0
:100F60006B0709D00F232B40042B05D02B1DAB4260
:100F7000AD416D4264191D00230200D42DE19D4A4C
:100F80000137974200D1D3E046469B49ED08214006
:100F90004A072A437C054D022D0B640D24052C4382
:100FA000F60734431000210003B0F0BCBB46B24644
:100FB000A946A046F0BD002A00D184E04A46D21BD3
:100FC000002F00D06DE12500054300D127E1561E1A
:100FD000012A00D13BE2874DAA4200D16AE20125F5
:100FE000382E12DC32001F2A00DDF8E12026250011
:100FF000B61A07005346B040D440B540D740461E0D
:10100000B0411B1B9A463D4305436246551BAC4508
:101010009241534652420E004F4688469C1A78E74A
:10102000002A00DC8EE04946002975D1614653460E
:10103000194300D1F6E0511E012A00D191E16D4D16
:10104000AA4200D1DCE00125382914DC0A001F2A5D
:1010500000DDA2E120215346891A8B401D00634622
:10106000D3401D4363468B4019004B1E99415346A4
:10107000D3400D43E4182D18854280414042241886
:10108000230259D55B4B01379F4251D001215A4B66
:101090006A081C4029400A43E507154364085FE7D6
:1010A00061465346194300D1BCE0511E012A00D1CC
:1010B00064E1504DAA4200D16AE10125382900DDE2
:1010C00022E70A000EE74D4A7D1C154200D0D0E011
:1010D00025006246534605431A43002F00D037E1EE
:1010E000002D00D1A8E1002A00D16AE16346C51AAB
:1010F0005346E21AA8429B415B42D31A1A0200D41B
:1011000003E263461D1AAC459241534652421C1BF2
:101110000E008846A41A23E736498F4270D0012575
:10112000382AA8DC8021534609040B439A468EE7EF
:101130003C000025002231E707232B40002B00D084
:1011400010E793E0002A74D04A46D21B002F00D14A
:10115000C7E02849894500D185E10125382A12DCFC
:10116000802109040C431F2A00DDABE1202125006A
:10117000891A070088408D40D740411E8841D440DD
:101180003D430543A2446544654592415242524461
:1011900014004F4674E7280001F0F0FD03001833F7
:1011A0001F2B00DCC2E62A00083882409F4200DD87
:1011B000A9E0DB1B581C1F2800DCACE115001F3B1D
:1011C000DD40202805D040231B1A9A40531E9A4127
:1011D0001543072300272B40B0E7ED08054B6207B6
:1011E0002A43E4089F420FD02403250B7C05640D9D
:1011F000D4E6C046FF070000FFFF7FFFFE070000A8
:10120000C00862070243E4081300234300D186E1CB
:1012100080252D0325432D03C34C2D0BBEE66046D0
:1012200054460E001700C508D8E7C04CFF1A1440FA
:1012300096E6BF4A791C11426BD122000243002F6F
:1012400000D0DBE0002A00D12DE1624653461A436C
:1012500000D1B6E06346C5188542804154444042FF
:101260002418230202D50F00B04B1C403A0028007E
:10127000D8E76246851AA8429241534652429146A7
:10128000E31A1A004B46D21A130091461A0254D49C
:101290004A464C462A4300D040E60026002400255A
:1012A0007CE6A14DA94500D190E00125382A00DD5A
:1012B000ABE680252D042C4395E6110055462039D8
:1012C000CD40A946202A06D0402153468A1A934091
:1012D00062461A43944665466B1E9D414B461D432C
:1012E00012E62100014300D1C4E0511E012A00D1C1
:1012F000FBE08D4DAA4200D1B5E00125382900DD83
:1013000041E70A002FE7894CFF1A14406207E408FE
:101310006AE7854A914200D1E3E06346C2188242FF
:1013200080412300404253441B18DD075C0807231B
:10133000520815430F002B4000E763461D1AAC45C9
:101340009241534652421C1B0E008846A41AE5E502
:10135000002D00D091E0002A38D1802400262403FB
:1013600056E76346C51885428041544440422418DC
:101370000127230200D4DFE6022787E66346C51A69
:10138000A842804153464042E41A0127241AC0E58E
:101390006207C0080243E40836E7110053462039CB
:1013A000CB409946202A06D0402153468A1A9340C2
:1013B00062461A43944665466B1E9D414B461D434B
:1013C00059E66207C0080243E4080DE753465A078E
:1013D0006346D80853460E000243DC0814E71500A4
:1013E0002600203DEE40202A03D04025AA1A944032
:1013F0002043421E90410500354306E6002A7CD07A
:1014000062465346C0081A4300D1FAE66207104309
:101410008022E4081203144208D0D908114205D1F1
:101420006346D80853460C005B071843420FC000C0
:10143000C00852070243E7E6002A00D12DE76346C1
:10144000D80853465A070E000243DC08CCE6634630
:101450001D1AAC459241534652421C1B0E00884651
:10146000A41A013755E56346D90853465A070A437B
:10147000DC08C9E660465446D4E6C008002A00D11C
:10148000BFE6620710438022E40812031442CDD065
:10149000DD081542CAD16346D80853465B070E00E3
:1014A0002C001843C2E76346D90853465A070A433B
:1014B000DC0899E66346D80853465A070E000243F3
:1014C000DC08A1E6110027002039CF40202A03D0F4
:1014D00040218A1A94402043421E904105003D431A
:1014E00051E60C000025002258E560446045924119
:1014F000544452420500A4183AE753465A0763463B
:10150000D90853460A43DC087EE61A001C002A4329
:1015100000D0ABE6C1E620210025091A19E500221A
:101520000025014C3AE5C046FF070000FFFF7FFFA2
:10153000FE070000F0B5DE46454657464E46E0B58C
:1015400087B0009201930B031B0B9B46CA0F4B0005
:10155000040080465B0D029200D16AE1D44A9342B6
:1015600000D18CE15946420FC9000A438021090489
:101570001143C2009046CF4A894692469A440023BE
:1015800000240393009E019F3B031B0B9B467B00A3
:1015900030005B0DFD0F002B00D128E1C44A9342BF
:1015A00000D177E15946720FC9000A43802109042E
:1015B00011438B46BF49F2008C4651466344CB1A17
:1015C0009A460023029E6E400F2C27D8BA49A400E9
:1015D00009598F46CB464246029E039B022B16D0EA
:1015E000032B00D1A6E2012B00D0DFE00022002374
:1015F000002490461B052343F60733434046190059
:1016000007B0F0BCBB46B246A946A046F0BD0022DA
:1016100000249046A64BEDE72E00DFE7CB4500D235
:10162000D4E100D1CFE101235B429C4644464846C9
:101630000027E2445B46150E1B021D43190C2B04C8
:10164000120200951D0C914602910395FEF7FEFDD6
:1016500002006A430B04210C804619438A4209D9CF
:10166000009D0123AC465B4261449C46E0448D42B0
:1016700000D8FBE1881A0299FEF7E8FD039A2404DA
:1016800042430904240C03000C43A24206D90099EA
:10169000013B8C466444A14200D8E1E1A01A4246D5
:1016A00012041A4393464B4659461B0C1D000493E3
:1016B0000B0449460904090C0C001B0C5C43120C7A
:1016C0006B43884651436A43250CAC465B18634420
:1016D000994203D9802149028C466244190C2404A2
:1016E0001B04240C8A181C19904202D316D1A7425D
:1016F00014D25B46009D013B4F4405934F459B41EF
:10170000AC465B426344C018854200D3A1E18242EB
:1017100000D9F6E100D1F1E1059B9B463C1BA742B5
:10172000BF41009D801A7F42C01B854200D1D0E19D
:101730000299FEF78BFD039A0B044243210C07002C
:1017400019438A4200D978E1881A0299FEF77EFD92
:10175000039A240442430904240C03000C43A242CC
:1017600000D95DE14146A41A3A041A43049D1304CA
:101770001B0C594347466B439C46100C47430B0CCC
:10178000BC44634468439F4203D980256D02AC4644
:1017900060441F0C09041B04090C3F185B18BC4271
:1017A00000D202E100D1FDE001231A43434B534430
:1017B000002B00DCAEE0510700D098E15946C9018A
:1017C00006D559463E4B194080238B46DB005344D7
:1017D0003C498B4200DD1AE75946D20849071143BC
:1017E0005A465B0554028846240B5B0D02E75A46B5
:1017F000009B1A4300D17EE05B46002B00D100E144
:10180000584601F0BBFA020003000B3A1D27009E68
:10181000BA1A19005846D6400839884032000243A7
:101820009346009A8A40284953448A469A440023A2
:10183000C8E65B460343994656D05B46002B00D171
:10184000CDE0584601F09AFA0B235B429C46020019
:10185000844466461D239B1B260011005846DE402B
:101860000839884033000343994623008B4098464B
:10187000164B00249B1A9A460023039382E65A468D
:10188000024391462AD100229A4602239046082418
:10189000039377E65A46009B1A430D4B9C46E2445D
:1018A000002A17D102231C4300239B46023389E6FA
:1018B000FF07000001FCFFFF14A80008FF03000061
:1018C000FFFFFFFEFE070000F30300000DFCFFFF1B
:1018D00001F8FFFF032332001C4373E69A460323FB
:1018E000D9460C2403934DE6002398469A460133CB
:1018F0000424039346E601231C4300239B46013343
:1019000060E60023802498460026924B240371E66B
:10191000012252420121C91A382900DD66E61F2939
:1019200000DCABE01F204042C31A5846D8400300F9
:10193000202904D058468849514488400243511E0A
:101940008A411A43072319000024114013420CD086
:101950000F231340042B00D1F9E0111D91429B414C
:101960000A005B4259075B021C0BD2080A439046EF
:1019700000233FE680244B462403234209D05B46E4
:10198000234206D11C4324032E009046714B240BA6
:1019900030E680244B4624031C432403029E6D4BF7
:1019A000240B27E6002B00D100E70098511E844647
:1019B0006444844200D284E0BC4200D2AEE000D154
:1019C000C1E00A00F0E6424500D92CE64B46DC07B0
:1019D000580843465B081C434346DF072AE601F0EC
:1019E000CDF915239C4684440200634620321C2B0B
:1019F00000DC2EE7230008388340994600239846F0
:101A000036E701F0BBF902000300153220331C2A2F
:101A100000DCFBE600990838814000228B4602E793
:101A20000099013B8C466444A14200D99AE6A24247
:101A300000D897E6831E644494E6AC466144013FB7
:101A40008D4200D980E68A4200D87DE6871E614437
:101A50007AE6854200D05FE6B94500D95CE656E6F5
:101A6000A24200D81AE6831E644417E68A4200D8D0
:101A700000E6AC46831E98466144FBE537481400F7
:101A8000504482405B4617008340CC407A1E974109
:101A900023433B431A005B46CB40510709D00F213B
:101AA0001140042905D0111D9142924152429B18C8
:101AB0000A00190200D455E70022012300249046B1
:101AC00098E50A00BC4200D06EE64B4500D06BE6BC
:101AD0006CE6234B234A5344924500DA18E7012170
:101AE00049420A1D8A42894149428B4466E60F21D8
:101AF0001140042900D161E61100F2E7BC4200D890
:101B00000AE602235B429C4600994F444F459B41A5
:101B1000E3448C465B426344C018FFE54946009DA0
:101B2000480048458941AC46494261448146023AF1
:101B30006418C7E780245B4624031C4324039046B3
:101B4000044B240B56E59945E8D30A00BDE7002372
:101B500008E7C046FF0700003E0400001E04000026
:101B6000FF03000002FCFFFFF0B55746DE464E467D
:101B70004546E0B50D000400E80F83460903D80F81
:101B8000090B824619488C461F0369005E00490D07
:101B90003F0B760D814218D086420FD00120B14212
:101BA0000DD1BC450BD1944209D1D3451CD000299D
:101BB00005D160462043431E984100E00120F0BC5F
:101BC000BB46B246A946A046F0BD01208E42F6D1E2
:101BD000614639430F0017432743F0D15B46524615
:101BE000981A431E9841EAE70020E8E7FF07000043
:101BF000F0B557464E464546DE46E0B50D000F03AC
:101C0000390B83B00400804601915800E90F314F31
:101C1000400D8C466E00190382469146760D090BE5
:101C2000D80FBE421FD0BA450FD0002E2FD1554637
:101C3000019E3443002D27D10A433AD0002C45D1D0
:101C400000281AD10120404217E011433BD1002E59
:101C500002D1019F2743F3D0844509D16346002B6D
:101C6000F0D0604609E0019F27432CD1B24524D033
:101C700063460220013B1840013803B0F0BCBB466C
:101C8000B246A946A046F0BD002CD9D0E4E75446A0
:101C9000002CEDD08445EBD15645E9DCDEDB019B21
:101CA0008B42E5D8DAD1C845E2D80020C845E4D255
:101CB000D4E70020002CE0D0DAE7114303D18445BB
:101CC000D6D10020D9E702204042D6E78445E6D0AD
:101CD000CEE7C046FF070000F0B557464E464546E2
:101CE000DE46E0B50D000F0304008046E80F390B17
:101CF000844683B05800304F400D01911E036900A7
:101D000082469146490D360BD80FB94220D0BA45CC
:101D10000FD000292BD101990C435146002937D10E
:101D2000324338D0002C44D1002819D10120404240
:101D300016E0164313D1002902D1019F2743F3D0A7
:101D4000844520D063460220013B1840013807E05B
:101D5000019F274303D18A45F4D116431FD00220A7
:101D600003B0F0BCBB46B246A946A046F0BD5446FF
:101D7000002CE7D08445E5D15145E3DC03DB019B32
:101D8000B342DFD80FD06346002BCFD06046E7E7E1
:101D9000002CC9D0D4E70020002CE1D0D2E7844544
:101DA000D0D10020DCE7C845CCD80020C845D7D228
:101DB000E9E78445E3D0C5E7FF070000F0B55746E3
:101DC000DE464E464546E0B51F000B031B0B1600D2
:101DD0009A46CA0F4B000400934687B05B0D00D1B2
:101DE000D5E0BB4A934200D1F8E05146420FC9000A
:101DF0000A43802109041143C2009146B54A8A462C
:101E00009D180023984602933C037B00FA0F300094
:101E1000240B5B0D009200D196E0AD4A934231D085
:101E2000720FE4002243802424041443A94AF000E2
:101E3000944663445B195A1C0192424600260A2AC2
:101E400042DC5A4600994A4093464246022A32DC16
:101E5000013A012A00D949E1022E00D1CAE0012E3F
:101E60003DD100230024002210005A461B052343C5
:101E7000D2071343190007B0F0BCBB46B246A946CF
:101E8000A046F0BD924B2643EB18002E00D1BBE0DC
:101E90000322414611435A46884600994A40802110
:101EA00009018C4629006144019141460A2900DD5F
:101EB00033E293460326424601279740A6213A0083
:101EC000C9000A400F4231D0029E022E00D135E2F5
:101ED000032E00D1D2E154464846012EC1D0019ACA
:101EE0007D4B94466344002B00DCC0E0420709D0E0
:101EF0000F220240042A05D0021D82428041404246
:101F000024181000E20106D5744B019A1C4080236E
:101F10009446DB006344724A93426BDC6207C0085C
:101F200064025B050243240B5B0D9DE79021890051
:101F30000F4263D188223A4200D1D7E0009BA246EB
:101F40009B4681460296BFE72300334300D17FE0E2
:101F5000002C00D1ADE1200000F010FF02000300D2
:101F60000B3A1D201900821A30000839D0408C40ED
:101F70000443300088405B4AEB1A944663445A1C81
:101F80000192424600260A2A00DC5AE79CE75346A3
:101F90000343994654D05346002B00D177E1504675
:101FA00000F0ECFE0B235B429C46020084441100CF
:101FB0005046083988401D23804660461B1A200081
:101FC000D8400300404603439A4623008B4099467D
:101FD0000023444D9846AD1A029315E7524602433A
:101FE000914626D100221D000223924608329046D7
:101FF000029309E700240022354B35E700238024B3
:102000009B462403324B2FE7022241461143802294
:10201000120194462A006244884601920A2900DD92
:1020200052E75A460020009904004A40934602268F
:102030000BE70C221D000323814690460293E3E642
:1020400000239A4604339846033B00250293DBE6BF
:10205000424601331A432B0090465A1C01924246D5
:102060000024002001260A2A00DCEAE62CE70122EF
:10207000D21A382A00DDF4E61F2A00DC2AE11F21EB
:102080004942CB1A2100D9400B00202A05D0164A1C
:10209000019D94466544AC402043421E9041184344
:1020A000072319000024014003420CD00F230340F2
:1020B000042B00D140E1031D8342A4411800644277
:1020C00061076402240BC20800230A43CCE6C04621
:1020D000FF07000001FCFFFFFF030000FFFFFFFE02
:1020E000FE0700000DFCFFFF3E04000049464A4683
:1020F0000904090C0D00160C020C0004000C4543E9
:10210000AC4605007543A84615000F0075430092C4
:1021100002952A00009D6F4365462D0CA946474451
:102120004F44B84505D915008022520290464544D7
:1021300002953D0C039565462D043F042D0CAC46DD
:102140003D0065440495250C2404240CAC46250070
:102150007543A84665460F00694341448946674375
:10216000390C49446E43884503D980225202904677
:1021700046440D0CA846350045440595039D3F0493
:10218000A8463F0C0904C91988444546039555469D
:102190002E04360C2F0C3500454378438146380019
:1021A000A8462D0CAA46009A504372434A44524412
:1021B000914503D980256D02A9464844150CA946CE
:1021C00045462D042D0CA84665467D43120448441F
:1021D0009044A9463200654662436E437C43170C27
:1021E0003619BF19BC4203D980246402A446E144D5
:1021F000029C039EA446059D66448E428941AC46DE
:1022000012043C04120CA218624449425418464479
:10221000A4464645A44182466442A046AA42924151
:102220008C458941E244D044494252420A43A04588
:10223000A44182458941644249420C4341463F0CD6
:10224000D2191219CC0D049970020843411E88411D
:1022500041464A44F60D52023043490214430843B2
:10226000D20135D50122430802401343E007184349
:10227000640834E6009BA2469B4681468024534670
:1022800024031C4324034A462E4B240BECE500F0A8
:1022900075FD15239C4684440200634620321C2BA6
:1022A00000DC84E6002399462300083883409A46E0
:1022B0008EE600F063FD02000300153220331C2A75
:1022C00000DC4EE602003400083A0020944052E65A
:1022D000019304E61C4B21009C460300019DD34062
:1022E0006544A94019430300AB40581E834119437C
:1022F0000800D4404B0709D00F230B40042B05D016
:102300000B1D8B428041404224181800230200D448
:10231000D6E6012300240022A6E50F29AAD18023B6
:1023200052461B031A42A9D01C42A7D11C43009B52
:1023300002009B46034B97E50024C1E60024014BB5
:10234000220091E5FF0700001E040000F0B54E4694
:102350004546DE465746E0B585B0009001910C0336
:102360004F00CE0F610A009CB046640F0C430099E9
:102370007F0DC80011001A001B039C4600910192BA
:1023800051004B0D9946019B009DD90F63466A0F82
:102390005B0A1343EA0094469346C14A03900293B2
:1023A000914500D1CDE0012569404D467D1BAA46EF
:1023B0008E4200D180E0002D00DC35E34946002943
:1023C00000D1DFE0974200D194E152460125382A3E
:1023D00019DC8022029B12041343029352461F2AE7
:1023E00000DDE3E1534620226146029DD21A95406A
:1023F000D9400D43614691400A00511E8A41154360
:10240000029ADA40A41A451BA84280414042241A8D
:10241000230200D43DE16402640A002C00D147E1AC
:10242000200000F0ABFC0300083B20212800CA1A62
:10243000D0409C4002009D4022439F4200DD77E156
:10244000D81B0130091A2C008D40C4406B1E9D41E1
:102450001300C2408B402543002714001D436B0727
:1024600009D00F232B40042B05D02B1DAB42AD41CF
:102470006D4264191D00230200D440E1884A0137EF
:10248000974200D101E1012643468649ED082140EB
:102490004A072A437C054D022D0B640D1E4024057E
:1024A0002C43F60734431000210005B0F0BCBB46B6
:1024B000B246A946A046F0BD002D00DCD0E2494658
:1024C000002900D0D4E06146029B194300D12BE1E2
:1024D000691E012D00D1D9E1954200D10AE1012503
:1024E000382917DC8A4653461F2B00DDE7E12022FE
:1024F000D21A029B614693401D005346D940634661
:1025000093401A000D43511E8A4153461543029AC7
:10251000DA40A4182D188542804140422418230235
:1025200000D4B6E05E4B01379F4200D1ADE00121FF
:102530005C4B6A081C4029400A43E50715436408C0
:102540008DE7594A029B92466246BA441A432CD000
:102550008E422ED05246002A60D0002F00D1DBE000
:1025600063460E00029CD80862070243E408130089
:10257000234300D154E280252D0325432D03484CED
:102580002D0B8CE76146029B194300D1CCE029005A
:102590000139012D00D188E1954200D1AAE0012541
:1025A000382900DD2FE78A4618E7012251408E4284
:1025B000D0D15346002B00D1BEE0002F00D038E12F
:1025C000CA462200024300D1E2E15346591E012BC4
:1025D00000D10DE2324A924500D1D2E101273829DB
:1025E00013DC1F2900DDEEE12022029B521A250098
:1025F00007009A46CC4090409540CF40A244421EEE
:10260000904153462F43074302933D00654465457F
:102610009241029B52424F46D41880E7234A7D1CC8
:10262000154200D0AAE062462500029B05431A43EA
:10263000002F00D0F5E0002D00D16BE1002A00D181
:1026400052E16346C51A029BE21AA8429B415B42D3
:10265000D31A1A0200D4D5E163461D1AAC45924143
:102660000126029B52421C1B8846A41A0E40F6E625
:1026700097423FD052460125382A00DD4AE78022A2
:10268000029B1204134302932DE73C000025002215
:1026900005E707232B40002B00D0E2E66BE0C046A5
:1026A000FF070000FFFF7FFF01F8FFFFFE070000AC
:1026B000280000F063FB030018331F2B00DCB4E696
:1026C0002A00083882409F4200DDB9E0DB1B581C1D
:1026D0001F2800DCA0E115001F3BDD40202805D0AD
:1026E00040231B1A9A40531E9A4115430723002783
:1026F0002B40D0E7C00862070243E40837E7EA0846
:1027000063071A43D34BE4089F4200D12FE7240309
:10271000250B7C05640DC2E6CA462200024358D14F
:1027200063460E00029C0393039B5746DA08E7E7D3
:10273000C94CFF1A144092E6C84D7A1C2A4200D0B8
:1027400084E022000243002F00D0EFE0002A00D1F5
:10275000E5E0624602990A4300D1C5E06346C51828
:102760008C4685428041644440422418230202D5AD
:10277000B94B01371C40BA460395D5E76246851A26
:10278000A842924152429146029BE31A1A004B46DC
:10279000D21A130091461A026CD44A464C462A4378
:1027A00000D03AE600260024002578E60299534638
:1027B0000D00203AD540202B06D04022D21A0B0023
:1027C000934062461A4393465B465A1E93411D430B
:1027D00019E653465A1E012B00D1C6E09D4EB24564
:1027E00000D1BDE688460E000125382A10DC1F2ADC
:1027F0007FDC20212500891A070088408D40D740C2
:10280000D440411E8841029B3D431B1B054302935C
:102810006246551BAC459241029B52424F469C1A60
:10282000F6E5002D00D0B7E0002A00D1F0E0012647
:102830000E4063460298D90842070A43C40896E648
:10284000854CFF1A14406207E40860E781498A4218
:1028500000D1C9E06346C11881428041029B4042D9
:10286000E3181B18DD075C08072349080D43170010
:102870002B4010E763461D1AAC4592410126029B8E
:1028800052421C1B8846A41A0E40C6E56346C51872
:10289000029B854280419C464042644424180127A3
:1028A000230200D4F5E6022741E66346C51AA84292
:1028B0008041029B4042E41A0127241AA8E5029DA8
:1028C00052462B00203AD34019005346202B06D005
:1028D0004022D21A2B00934062461A4393465D462B
:1028E0006B1E9D410D4315E66207C0080243E408D4
:1028F0000DE7110027002039CF40202A05D04021C4
:102900008A1A9440250005430395039D6A1E95414C
:102910003D437DE7002A00D144E701260E4063468F
:10292000D908029B5A070A43DC08F0E6002A28D09F
:102930006246029FC0083A4300D1DCE662071043BA
:102940008022E4081203144209D0FD08154206D182
:10295000634601262C00D8087B0718430E40420F1F
:10296000C000C0085207024301E663461D1AAC4589
:102970009241029B52421C1B0E0088460127A41A5A
:1029800046E56346D908029B5A070A43DC08EEE590
:102990006346029C0393C7E6C008002A00D1AAE65A
:1029A000620710438022E40812031442D7D0029F2A
:1029B000FD081542D3D163460126D8087B072C00B9
:1029C00018430E40CBE70A002700203AD7402029C1
:1029D00005D04022521A9440250005430395039DDB
:1029E0006A1E95412F4310E614000025002256E58B
:1029F000029B60449946604592414C445242050016
:102A0000A4184CE71A001C002A4300D0B3E6C9E61C
:102A1000802400262403AEE520210025091A17E5AD
:102A2000002200250B4C3AE5002D00D1F6E54B467F
:102A3000DA1B9246002F00D16FE6382A05DC80268B
:102A40003604344388460E00D1E688460E00012540
:102A5000DEE6C046FF070000FFFF7FFFFE07000025
:102A6000002D00D168E64B46D91B002F01D18A46C4
:102A7000A7E50127382900DDC7E5802212041443A9
:102A8000AFE5C046F0B5C6461E03360BB0460D4E48
:102A90000C034D005F0000B5240B6D0D7F0DB5429A
:102AA0000BD0084900208F4204D14646164330001F
:102AB000431E984180BCB846F0BD04430120002C61
:102AC000F8D1EEE7FF0700000B00020070B5164DCD
:102AD0000C0382B04900002000920193240B490DA1
:102AE000DE0FA94204DD1148814203DD104BF018CE
:102AF00002B070BD8020400320430E4C641A1F2C8E
:102B000008DD0D4B5B1AD84003005842002EEFD170
:102B10001800EDE7094B009A9C46030061448B4086
:102B2000E2401343F1E7C046FE0300001D0400002D
:102B3000FFFFFF7F3304000013040000EDFBFFFFE5
:102B400070B5002816D0C317C5185D40C40F280003
:102B500000F014F9104B1B1A5B055B0D0A2814DCFE
:102B600002002E00153296400B22121AD5402D037A
:102B70002D0B03E000240023002500261B052B431A
:102B8000E40723433000190070BD0B3885402D0346
:102B900000262D0BF2E7C0461E04000010B5041EEF
:102BA00010D000F0EBF80E4B1B1A5B055B0D0A28EA
:102BB0000FDC0B222100121AD14015300A03844089
:102BC000120B01E0002300221B0513432000190013
:102BD00010BD22000B38824012030024120BF3E7D1
:102BE0001E04000070B542024300C40FFE201B0EFD
:102BF000591C550A08420CD0E02189008C466D070B
:102C0000120B63441B051343E407234328001900F8
:102C100070BD002B14D1002D1BD0280000F0AEF8A1
:102C20000A281CDC0B232A001B1ADA400300153388
:102C30009D400E4B12031B1A5B05120B5B0DE1E767
:102C4000002D09D0130B802212031A436D07084B85
:102C5000D8E700230022D5E70022054BD2E7030086
:102C60002A000B3B9A400025E3E7C0468903000099
:102C7000FF070000F0B54B000F035B0D3B4C450F09
:102C800083B07F0A5E1C2F4300900191CA0FC500DC
:102C900026420BD036495C18FE2C13DDFF200023A2
:102CA000C0051843D207104303B0F0BD002B02D17A
:102CB00000200023F4E73D43F0D08023DB03FF2016
:102CC0003B43EDE7002C14DD009BFF009B01581EE9
:102CD0008341690F3B430B43590741D00F211940F2
:102CE000042928D00433590125D501340023E0B24A
:102CF000D6E721001731DBDB80211E200904394390
:102D0000001B1F281BDD02267642341B0E00E64006
:102D10003400202804D017488446634499400D436A
:102D20002B00591E8B412343590715D00F21002436
:102D30001940042917D19B015B0AE0B2B0E70E4CA1
:102D40001C192B00A540C340A140681E85412943A2
:102D50000B4300245907C1D19B0100205B0A9FE768
:102D6000DB08E0B29CE70433E5E7C046FE0700005D
:102D700080FCFFFFA2FCFFFF82FCFFFF1C21012360
:102D80001B04984201D3000C10391B0A984201D34E
:102D9000000A08391B09984201D30009043902A22C
:102DA000105C40187047C046040302020101010193
:102DB000000000000000000010B5002903D1FFF75B
:102DC000DDFF203002E00800FFF7D8FF10BDC0464D
:102DD00010B59EB03822002110A805F093FB1422F4
:102DE000002101A805F08EFB2422002106A805F091
:102DF00089FB80232449254C0A681B012240134388
:102E00000B6003F00FFC224A10A8136D23401365DA
:102E10002623802210930123520012921393102331
:102E200014930F3B169301331A9300231B938023B3
:102E3000DB021C938023DB031D9303F045FC002879
:102E400001D072B6FEE70F230390019304900C3B70
:102E50000590012101A8029303F02EFF002801D064
:102E600072B6FEE7802368225B02069207938023F6
:102E70000C90DB0406A80E9304F00CF8002801D097
:102E800072B6FEE71EB010BD00700040FFE7FFFF06
:102E900000100240F0B54646D6464F46C0B588B051
:102EA00003AE3200DB4B13CB13C203CB03C2DA4BAE
:102EB0001A78002A00D0EFE0D84CD94DD94F142110
:102EC0001C2002F091F8A0200121C00502F0BAFBFD
:102ED000012800D1DDE0D44B2360012329686A6812
:102EE000200002F065F81E211C2002F07DF8A020D1
:102EF0000221C00502F0A6FB012800D1C6E0CA4BA2
:102F00002360012329686A68200002F051F8282113
:102F10001C2002F069F8A0201021C00502F092FBED
:102F2000012800D1AFE0C04B236001236A68200074
:102F3000296802F03DF8BD4B1A78012A00D195E0CE
:102F4000BB4B9A463B78012B00D182E0B94B9946A6
:102F5000B94B1A78012A00D16EE0B84B984614217B
:102F60005B2002F041F853461B78042B08D8B44A82
:102F70009B00D3589F46B34B1A6822609B88A3805E
:102F8000012329686A68200002F012F853461B7872
:102F9000AD4F9B00F3581E215B203B6002F024F8EC
:102FA0004B461B78042B08D8A84A9B00D3589F4651
:102FB000A44B1A6822609B88A380012329686A6851
:102FC000200001F0F5FF4B461B7828219B00F358A9
:102FD0005B207B6002F008F843461B78042B08D87E
:102FE0009B4A9B00D3589F46964B1A6822609B8849
:102FF000A3806A6829680123200001F0D9FF4346B5
:103000001B7832219B00F3580020BB6001F0ECFFDD
:10301000904891494378027880780090200005F02C
:1030200005FA06CD0123200001F0C2FF08B0E0BC84
:10303000BA46B146A846F0BD00221A707F4B9846AA
:103040001B780133DBB2042B00D833E143461A70FE
:1030500085E70022774B3A7099461B780133DBB243
:10306000042B00D82CE14B461A7071E700221A702D
:103070006F4B9A461B780133DBB2042B00D81CE15E
:1030800053461A705EE7754B23604EE7734B23601F
:1030900037E7724B236020E7002200210020904692
:1030A0001A7001F0A1FF5D4C6D4B270007CB07C7DD
:1030B0001A685B4D3A609A882000BA809B79BB7190
:1030C0006A680123296801F073FF0A21002001F0DA
:1030D0008BFF2200634B83CB83C21B8820001380AD
:1030E0006A680123296801F063FF1421002001F0C0
:1030F0007BFF5D4B20001A6822601B7923716A6890
:103100000123296801F054FF1E21002001F06CFF0B
:10311000564B20001A6822601B7923716A680123CC
:10312000296801F045FF2821002001F05DFF504B88
:1031300020001A6822601B7923716A6801232968BC
:1031400001F036FF1421382001F04EFF494B2000DA
:103150001A6822609B88A3806A680123296801F0AD
:1031600027FF1E21382001F03FFF434B20001A6843
:1031700022609B88A3806A680123296801F018FFF8
:103180002821382001F030FF3C4B20001A682260D3
:103190009B88A380296801236A6801F009FF4346E0
:1031A000204F3B708BE6364B1A6822609B88A380C9
:1031B0001FE7344B1A6822609B88A380E0E6324BFD
:1031C0001A6822609B88A380DAE6304B1A68226076
:1031D0009B88A380D4E62A4B1A6822609B88A38030
:1031E000CEE6284B1A6822609B88A380E5E6264B32
:1031F0001A6822609B88A380DFE6244B1A6822604D
:103200009B88A380D9E61E4B1A6822609B88A38006
:10321000D3E6C04600A800081A000020A40200203F
:1032200010000020950200204F4646009602002024
:103230001B0200201A020020940200201902002024
:1032400000D10008DCD000089802002014D100084A
:1032500028D1000870020020E4D000084F4E200062
:1032600068D000087CD000088CD0000894D00008FA
:103270009CD00008A4D00008ACD00008B4D000084E
:10328000D4D00008BCD00008C4D00008CCD00008BE
:103290000D4B1A6822609B88A380AAE60B4B1A6824
:1032A00022609B88A380A4E6094B1A6822609B8851
:1032B000A3809EE64246137051E65246137041E6E3
:1032C0004A46137044E6C046BCD00008C4D000088B
:1032D000CCD00008F0B54646D6464F46C0B5D44AD5
:1032E000D44E11783378002972D000211170D24A5F
:1032F00001311170002B00D197E2012B00D16FE357
:10330000022B00D10BE3032B00D194E2042B00D05D
:1033100066E1C94B1A78012A01D100F0F6FCC74CCE
:10332000C74DC84B98461B78002B01D100F0B6FC66
:10333000C5490B685A1C0A60272A01D800F0D8FC3E
:1033400000230B60F020002100220003BF4BC04F80
:1033500007C3C04A0B219146127837203B78012AD7
:1033600001D100F0A7FC002B01D000F0B5FC01F06A
:103370003BFEB94B23602000002329686A6801F0F6
:1033800017FE424612781E2137203B78012A01D1D0
:1033900000F089FC002B01D000F093FC01F024FE2A
:1033A000AD4B2360200006CD012301F001FEAB4AA6
:1033B0001378002B01D000F057FCA94B1A78012A92
:1033C00003D13A7851424A413A7000221A7007E11B
:1033D000002B00D0A1E1984A1378012B00D124E200
:1033E0000A210C2001F000FE9E4B1868FFF7FAFB43
:1033F000924C02000B0020009B4905F017F89B4AF5
:10340000012306CA200001F0D3FD2D21062001F082
:10341000EBFD974B250018689A46FFF7E3FB020087
:103420000B002000934905F001F8854A012306CAE4
:10343000200001F0BDFD0021002001F0D5FD8E4BE4
:1034400007CB07C51A8820002A809B78AB708B4D6C
:1034500001236A68296801F0ABFD2421002001F0F6
:10346000C3FD2200864B83CB83C21B7820001370E0
:1034700006CD012301F09CFD824B1D68824B281C68
:103480001C68211CFDF740F8804B1B6898460028FB
:1034900043D0191C281CFDF737F800283DD0002127
:1034A000281CFDF70DF8002837D1794B4146994685
:1034B00001234A46201C1370FDF726F8002800D08F
:1034C000B1E24146201CFDF70BF8002800D1ABE328
:1034D00000214046FCF7F4FF051E00D0A4E30223C0
:1034E0004A4600219370201CFCF7EAFF002801D017
:1034F00000F06BFC03234A465370524B1B78012BA0
:1035000064D1F022514B12011A600F21022259603E
:10351000002A00D033E300225CE0211C281CFCF7C9
:10352000DFFF002841D04146201CFCF7EDFF0028BA
:103530003BD00021201CFCF7C3FF002835D1544BA1
:103540004146994601234A46281C5370FCF7DCFF8C
:10355000002800D0CCE24146281CFCF7C1FF00281F
:1035600000D176E300214046FCF7AAFF041E00D0FC
:103570006FE302234A4600219370281CFCF7A0FF4A
:10358000002801D100F025FC4B4602221C702D4B77
:103590001B78012B1AD100212C4B1960F021090155
:1035A0005960002AB7D03B4A14E04146201CFCF782
:1035B00097FF002800D075E00022354B1A809A70E2
:1035C0000022204B1B78012B00D1DDE200221F4B93
:1035D0001A605A609A60214B1A78012A00D18BE157
:1035E0002D4B1A78012A15D02C4B1A78012A04D0B9
:1035F000E0BCBA46B146A846F0BD00211970284B80
:10360000323119603378032BF2D8013333700A4B0F
:103610001A70EDE700211970214B323119603378AF
:10362000002BE1D0013B3370034B1A70DCE7C0463E
:103630001A0000201702002018020020A402002017
:10364000080000201900002010020020980200202D
:103650000D020020180000204F4646009502002071
:103660000C020020400200203CD100080000002095
:103670003002002044D100084CD100081000002086
:103680005CD100084C0200204802002044020020C7
:103690001402002000080800960200209402002076
:1036A000840200204146281CFCF71AFF002800D1A4
:1036B00082E700214046FCF703FF002800D07BE7AB
:1036C000E94B211C994601234A46281C9370FCF7BC
:1036D00007FF002800D183E20021201CFCF7F0FE48
:1036E0008046031E00D07BE24A460233002153701D
:1036F000281CFCF7E5FE002800D157E34B46424664
:103700001A70DA4B1B78012B00D05FE7D84B1A6098
:10371000D84A5A60F02212015CE7012B00D0EFE595
:10372000D54A1378012B00D15AE1D44CD44D0A214B
:10373000002001F059FCD34B1868FFF753FA020040
:103740000B002000D04904F071FE6A68012329684B
:10375000200001F02DFC1421002001F045FCCB4B92
:103760001868FFF73FFA02000B002000C84904F078
:103770005DFE6A6801232968200001F019FC1E2102
:10378000002001F031FCC34B1868FFF72BFA020050
:103790000B002000C04904F049FE6A680123296833
:1037A000200001F005FC3221002001F01DFCBB4B84
:1037B000BB4918689846FDF71BFAFFF713FA020099
:1037C0000B002000B74904F031FE012329686A6824
:1037D000200001F0EDFB2821002001F005FCB24F94
:1037E0003868FFF7FFF902000B002000AF4904F032
:1037F0001DFE06CD0123200001F0DAFBAC4B1A7848
:10380000012A00D0ECE6FA21AA4AC90012688A42CD
:1038100000D8E5E600221A70A74B2D32FF321A605D
:103820000023424613603B60DAE600230020137059
:1038300001F06EF8D4E5904B1A78012A00D17BE1B3
:103840008E4C8F4D0A21002001F0CEFB9B4B186857
:10385000FFF7C8F902000B0020008B4904F0E6FDD9
:103860006A6801232968200001F0A2FB14210020CE
:1038700001F0BAFB924B1868FFF7B4F902000B0095
:103880002000834904F0D2FD6A68012329682000E2
:1038900001F08EFB1E21002001F0A6FB894B186869
:1038A000FFF7A0F902000B0020007B4904F0BEFDE9
:1038B0006A6801232968200001F07AFB3221002088
:1038C00001F092FB804B764918689846FDF790F915
:1038D000FFF788F902000B002000724904F0A6FDF2
:1038E000012329686A68200001F062FB282100207A
:1038F00001F07AFB754F73E7FA216E4AC90012682E
:103900008A4200D86CE600221A706B4B2D32FF32CF
:103910001A6000226E4B1A6053461A6060E6564BDE
:103920001A78012A00D138E1544C554D0A21002063
:1039300001F05AFB674B1868FFF754F902000B00BF
:103940002000514904F072FD6A68012329682000B3
:1039500001F02EFB1421002001F046FB5E4B18689D
:10396000FFF740F902000B002000494904F05EFD1A
:103970006A6801232968200001F01AFB1E2100203B
:1039800001F032FB554B1868FFF72CF902000B00D1
:103990002000414904F04AFD6A680123296820009B
:1039A00001F006FB3221002001F01EFB4C4B3C498C
:1039B00018689846FDF71CF9FFF714F902000B0090
:1039C0002000384904F032FD012329686A6820008C
:1039D00001F0EEFA2821002001F006FB414FFFE63E
:1039E0000021224B11701B7800205A1E93413E4A41
:1039F0005B4213401E4A13605160916000F088FFE3
:103A00000021002001F0F0FA1C4C384B220023CB9F
:103A100023C21B681A4D13602000012329686A68BD
:103A200001F0C6FA83E60021201CFCF749FD051EC3
:103A300000D046E502234A46002140465370FCF779
:103A40003FFD002800D09FE103234A469370074BB7
:103A500003221B78012B00D0B8E5F021044B0901AB
:103A60001960044953E5C0461402002019000020E3
:103A7000980200200008080018020020A40200207C
:103A800010000020680200207CD1000864020020A1
:103A90008CD100084C0200209CD100082C02002090
:103AA00000007A44ACD100083C020020B8D10008E4
:103AB000950200208C020020840200205402002085
:103AC000580200204402002024020020340200207A
:103AD000500200205C02002060020020480200200A
:103AE0002802002038020020080808006CD10008D5
:103AF0000021281CFCF7E4FC002800D02BE5002165
:103B00004046FCF7DDFC002800D147E100220021FF
:103B1000022348460370C44B82701B78012B00D0EF
:103B200054E5C24BC24A1A60F02212015A600029C1
:103B300000D1F0E40F224DE500211970BA4B0020AE
:103B40001B785A1E9341BB4A5B421340B74A11602F
:103B50005160936000F0DCFE0021002001F044FA87
:103B6000B54CB64B220023CB23C21B68B44D136067
:103B70002000012329686A6801F01AFA62E6022A25
:103B800000D110E50F2225E50021A84B19605960EE
:103B9000002A00D0BEE500221CE500211970A24BCE
:103BA00000201B785A1E9341A24A5B4213409F4A51
:103BB00011605360916000F0ABFE0021002001F025
:103BC00013FA9D4C9F4B220023CB23C21B689C4DB4
:103BD00013602000012329686A6801F0E9F9A5E66D
:103BE000211C281CFCF790FC002838D0281C002140
:103BF000FCF766FC051E32D102234A4600211370F1
:103C0000201CFCF75DFC002800D0F4E003234A46AA
:103C10005370854B1B78012B00D0D7E4834B844A2B
:103C20001A600F225A6075E54A460023537093705C
:103C300000227D4B1B78012B00D0C7E4F0217B4B89
:103C40000901196000215960002A00D0ABE400226C
:103C5000C0E44A46002313709370002297E44A465A
:103C6000002313800122ACE477490B70012B00D0B4
:103C7000B6E4FA20754B80001B68834200D8AFE49D
:103C8000002313700B703B78002B00D0C0E04B4634
:103C90001B785A4253414A461370A1E40020002188
:103CA0000022FFF753FB002B6AD101F09DF9684B0E
:103CB000FFF777FB002B5FD101F096F9644BFFF71C
:103CC00059FB01F091F9634B2360200006CD0023DE
:103CD00001F06EF9FFF76BFB01F086F95D4B236095
:103CE0002000012329686A6801F062F9FFF749FBA7
:103CF000092A01D8FFF726FB133B0020092B50D8D7
:103D0000F02200211203FFF721FB002200201A708D
:103D100000F0FEFD0021002001F066F9464C4E4BFC
:103D2000220023CB23C21B6820001360444A0123D6
:103D300006CA01F03DF90B21002001F055F9474B6F
:103D4000474D1A68200022609B88A3806A6801237F
:103D5000296801F02DF91E21002001F045F9414BA1
:103D600020001A6822601B792371296801236A6880
:103D700001F01EF9FFF7D5FA01F036F9344BAEE742
:103D800001F032F9324B9FE74B469D70264B0022E3
:103D90001B78012B00D160E6FFF718FC03220321FA
:103DA000B6E6F02100220903FFF7D0FA03234A46C2
:103DB00013701D4B1B78012B01D0FFF707FC0F225E
:103DC0001A4B1A601A4A5A60A4E44B4602225D70EC
:103DD0002FE703234A461370134B1B78012B01D0A6
:103DE000FFF7F4FB0F22114B1A60F02212015A6008
:103DF0000F4AFFF7EFFB4B465D700B4B1B78012B17
:103E000001D0FFF7E3FB094B094A5D601A6081E4CA
:103E1000012B01D0FFF7E4FB43461B785A42534184
:103E200042461370FFF7DCFB1900002098020020C7
:103E30000008080008080800A4020020D8D10008E3
:103E400010000020C8D100080C0200208C020020C5
:103E5000204F4E004F464600E8D10008F8D1000838
:103E60000800002000D2000800B5E22385B06A46B1
:103E7000DB01938127239373283B00938021043334
:103E800003AA024801F0F8FE05B000BDAC06002010
:103E9000F0B5DE4657464E464546E0B5A3B001F0C4
:103EA00049FAFEF795FF142200211CA804F02AFB12
:103EB00004220126924B8024D96AA0201143D962A2
:103EC000D96A64000A401392139ADA6AC005324331
:103ED000DA62DA6A002532401492149A0222D96A10
:103EE000884F1143D962DB6A21001A4015920022E3
:103EF000159B01F0ADFBA020002313221CA9C005D7
:103F00001C921D931E9501F09DFAA0201CA9C005CE
:103F10001C941D961E951F9501F094FA7A4C7B4BCC
:103F2000200023606760A560E66025616561A5618A
:103F3000E561256201F048FE002801D072B6FEE777
:103F40000021200002F08AFA011E01D072B6FEE7BD
:103F5000200002F0A9FA8146002801D072B6FEE7DF
:103F600080235B011800984602F0CCFA684D694B3B
:103F700028002B604B466F60AB60EE602B616B617D
:103F8000AB61EB612B6201F01FFE011E01D072B626
:103F9000FEE7280002F062FA011E01D072B6FEE7C9
:103FA000280002F081FA071E01D072B6FEE78020D9
:103FB000800102F0A7FA1022390018A804F0A2FA32
:103FC0000822390016A804F09DFA102239001CA816
:103FD00004F098FA504E514B300033600723736061
:103FE0004F4BB760F3603761776103F097F90028B2
:103FF00001D072B6FEE74346300018A9189303F0CB
:104000005BFB002801D072B6FEE7300003F0FAF93E
:10401000002801D072B6FEE700220023300016A966
:104020001692179303F094FC002801D072B6FEE7B5
:10403000602300221C939533FF3330001CA91D938D
:104040001E921F9203F080FA8046002801D072B6BB
:10405000FEE70827300001F069F83A0041461CA845
:1040600004F050FA2F4B99464A462F4B48461360AE
:104070001F2353604B4642469A604A46284BD36002
:104080004B4642465A6103F049F9002801D072B606
:10409000FEE70022002348461CA91C921D9303F052
:1040A00057FC8446002801D072B6FEE71F4B20491A
:1040B000180019605F60022300229B468360036141
:1040C00000238261C3616346036202F029FA00287B
:1040D00001D072B6FEE7174B98464246164B506029
:1040E00013607F2310619360506180339061D061D1
:1040F0004046D36003F016F8071E1FD072B6FEE7E5
:104100000010024013041000AC06002000540040D0
:104110005806002000580040B40500200008014067
:10412000E7030000F405002000100040C00200205A
:10413000005C00403406002000280040FFF794FE99
:10414000280000F043FC0121380000F04DFF4E4AEA
:10415000012306CA4D4800F02BFF1B21380000F058
:1041600043FF4B4A0123924606CA4A4800F020FF0B
:104170002D21380000F038FF5246012306CA464878
:1041800000F016FF280000F0D1FB3900300003F0EA
:104190007FF9C8239620414E400073639A4601F090
:1041A000EFF896207763400001F0EAF85346962036
:1041B0007363400001F0E4F896207763400001F05B
:1041C000DFF8534696207363400001F0D9F83800B9
:1041D000776300F09DFB484603F0E6F8A0205946BF
:1041E000C00501F02FFA434258412D4A00211070BA
:1041F000119200222B4BA02019605A60A446032282
:104200001C00A94601319F60C005FF318026182798
:104210002568360481612E4200D1C8E10D23C046D5
:10422000013B002BFBD18162C046C046C046C04660
:10423000C046013F7608002FECD1013AD2B20434D7
:10424000002AE3D1184B4D460993184B64460A9354
:10425000174B9A46174B57460B93174B0493174B24
:104260009B46174B5E460C93164BAB460593164B7D
:104270000893164B0D93164B0E93164B0F93164B3C
:1042800010938023994631E00000002008D20008F6
:104290000800002010D200081CD2000800080140CD
:1042A0001B00002098020020700200206C020020F9
:1042B00064020020680200204C02002060020020FE
:1042C0005C02002048020020580200205402002016
:1042D000440200205002002040020020FEF7DAFDD8
:1042E000584600F023FB312001F04AF800220999DA
:1042F000404602F0A9FF00220A99404602F0E0FF82
:104300000125202210AB6D429B181F3A1A704946B6
:104310001300009518AA200001F0AEFC1CAA02238D
:1043200049460095200001F06DFE10AB188E40BA92
:1043300080B2C010FEF704FCA34AA44BFDF73EFD7B
:10434000FEF798FCFEF74EFCA14AA24BFDF7F2F8EF
:10435000FEF790FC02239A46524610AB1A7638605C
:1043600001234946009516AA200001F085FC53461A
:104370001CAA49460095200001F044FE10AB188E9F
:104380003B6840BA80B2C0100293FEF7D9FB924A54
:10439000924BFDF713FDFEF76DFCFEF723FC069034
:1043A00007910298FEF71EFC894A8A4BFDF706FD2D
:1043B0000B00020006980799FCF758FDFEF75AFC1F
:1043C0000B9A011C10600298FCF712FC049B10AAC7
:1043D0001860032310A98C46D3720B22494662440D
:1043E0000095023B200001F047FC534649460095EA
:1043F0001CAA200001F006FE10AA108E40BA80B25E
:10440000C010FEF79DFB704A704BFDF7D7FCFEF71E
:1044100031FCFEF7E7FB6E4A6E4BFDF78BF8FEF7BB
:1044200029FC042310AA10A98C4693720A2230603A
:10443000624449460095033B200001F01DFC5346B1
:10444000494600951CAA200001F0DCFD10AA108E40
:10445000326840BA80B2C0100292FEF771FB5E4A29
:104460005E4BFDF7ABFCFEF705FCFEF7BBFB0690D1
:1044700007910298FEF7B6FB554A564BFDF79EFC96
:104480000B00020006980799FCF7F0FCFEF7F2FB20
:104490000C9A011C10600298FCF7AAFB0523059AF0
:1044A00010A9106010AA94464B72092161440A00B9
:1044B00000954946043B200001F0DEFB1CA9534651
:1044C0000A0000954946200001F09CFD10A9088EC5
:1044D00040BA80B2C010FEF733FB3B4A3B4BFDF7BE
:1044E0006DFCFEF7C7FBFEF77DFB394A394BFDF744
:1044F00021F8FEF7BFFB06230899086010A8037295
:1045000012A8020049460095053B200001F0B4FBCB
:104510001CA85346020049460095200001F072FD98
:1045200010A8008E089940BA80B2C0100D68FEF73E
:1045300007FB294A294BFDF741FCFEF79BFBFEF7E1
:1045400051FB02900391281CFEF74CFB204A214BA3
:10455000FDF734FC02000B0002980399FCF786FC7F
:10456000FEF788FB011C0D980160281CFCF740FB3E
:104570000E998246086031683868FCF7E9F8291C12
:10458000FCF7E6F8049B059A0F9908601868116813
:10459000FCF7DEF85146FCF7DBF8109B1860119B26
:1045A0001B78002B00D199E6FEF794FE98E6C046F2
:1045B000C046C046C046C046C0460C238162C046C5
:1045C000013B002BFBD134E6F168E388B5F8043FEA
:1045D0009A9999999999B93FFCA9F1D24D62803F76
:1045E000A02010B50121C00501F02CF801281DD034
:1045F0000022224B1A70224B1A60A0200221C00513
:1046000001F020F8012820D000221E4B1A701E4B0A
:104610001A60A0201021C00501F014F8012823D051
:1046200000221A4B1A701A4B1A6010BD144A1368F4
:1046300001331360032BE0D1104B02211870A0202E
:10464000C00500F0FFFF0128DED10F4A13680133D7
:104650001360032BDDD10B4B10211870A020C00577
:1046600000F0F0FF0128DBD1094A13680133136021
:10467000032BDAD1054B1870D7E7C046960200200D
:1046800090020020950200208C020020940200205D
:104690008802002070B5884A13780133DBB2632B9F
:1046A00049D81370FFF79CFF844A1368002B3FD052
:1046B00083490978012900D1F8E0013B1360814D5D
:1046C000A0202E0080210C36C0054900802318222E
:1046D0002C681B0416E0C046C046C046C046C04613
:1046E000C046C046C046C046C046C046C046C0469A
:1046F0008162C046C046C046C046C046013A5B081B
:10470000002A11D081612342E5D1C046C046C0468F
:10471000C046C046C0468162C046C046C046C0468C
:10472000C046C046C046E4E70435B542CED170BDB0
:10473000654A5363C3E700231370644B644E1868E3
:10474000FEF750FA0022634BFCF7F4FE04003068D9
:104750000D00FEF747FA02000B0020002900FCF7CD
:1047600085FBFEF787FA5C4B30601868FEF73AFA73
:104770000022584BFCF7DEFE584E040030680D0056
:10478000FEF730FA02000B0020002900FCF76EFB58
:10479000FEF770FA524B30601868FEF723FA0022D9
:1047A0004C4BFCF7C7FE4F4E040030680D00FEF77F
:1047B00019FA02000B0020002900FCF757FBFEF756
:1047C00059FA494B30601868FEF70CFA0022414B49
:1047D000FCF7B0FE454E040030680D00FEF702FA0B
:1047E00002000B0020002900FCF740FBFEF742FA14
:1047F0003F4B30601868FEF7F5F90022354BFCF7A7
:1048000099FE3C4E040030680D00FEF7EBF9020003
:104810000B0020002900FCF729FBFEF72BFA364B92
:1048200030601868FEF7DEF900222A4BFCF782FEA2
:10483000324E040030680D00FEF7D4F902000B0080
:1048400020002900FCF712FBFEF714FA2C4B306015
:104850001868FEF7C7F900221E4BFCF76BFE294EC5
:10486000040030680D00FEF7BDF902000B002000C7
:104870002900FCF7FBFAFEF7FDF93060224E234BCE
:104880001868FEF7AFF90022124BFCF753FE040044
:1048900030680D00FEF7A6F902000B002000290089
:1048A000FCF7E4FAFEF7E6F93060FBE6FA20064989
:1048B0004000486301E7C0461C020020840200203B
:1048C0001800002098020020000801404C0200203F
:1048D0003C0200200094E140640200202C020020F1
:1048E0004802002038020020600200202802002038
:1048F000440200203402002058020020240200203C
:10490000400200203002002020020020500200203F
:10491000431E9841822210B54142C9B20248D200DA
:1049200003F0F0FD10BDC04608070020264BF0B58F
:104930004F4699460A234646D646172498460633DC
:10494000C0B5B025060001279A4686B06C444346A0
:1049500025700022782102933000012301970094F2
:1049600001F03AFC00232370434600227821029391
:10497000300001230197009401F02EFC5346237070
:1049800043460022782102933000012301970094CE
:1049900001F022FC642302931E3301934B46402214
:1049A000009378210123300001F016FC82239C46FD
:1049B0000135EDB2E144B82DC9D106B0E0BCBA462C
:1049C000B146A846F0BDC04608070020F0B5DE4657
:1049D00057464E464546E0B5172487B0050064208B
:1049E0000A27012600F0CCFCAE236C442370002281
:1049F00078210094AD3B28000297019601F0ECFB72
:104A000020238046237099460022782100941F3B82
:104A100028000297019601F0DFFB1023002223708B
:104A20009B467821804400940F3B28000297019612
:104A300001F0D2FBB023002223707821804400943F
:104A4000AF3B28000297019601F0C6FBC823002265
:104A50002370782180440094C73B28000297019678
:104A600001F0BAFB0023002223709A46782180448B
:104A70000094013328000297019601F0ADFB5B46DC
:104A8000002223707821804400940F3B2800029775
:104A9000019601F0A1FB402300222370782180447D
:104AA00000943F3B28000297019601F095FB81237B
:104AB00000222370782180440094803B28000297D4
:104AC000019601F089FBFF230022237078218044A6
:104AD0000094FE3B28000297019601F07DFBA12384
:104AE00000222370782180440094A03B2800029784
:104AF000019601F071FBA6230022237078218044E7
:104B00000094A53B28000297019601F065FBA823BD
:104B100000222370782180440094A73B280002974C
:104B2000019601F059FB3F23002223707821804435
:104B300000943E3B28000297019601F04DFBA42310
:104B400000222370782180440094A33B2800029720
:104B5000019601F041FBD323002223707821804489
:104B60000094D23B28000297019601F035FB534692
:104B7000002223707821804400940133280002979A
:104B8000019601F029FBD52300222370782180446F
:104B90000094D43B28000297019601F01DFBF023FE
:104BA00000222370782180440094EF3B2800029774
:104BB000019601F011FBD923002223707821804453
:104BC0000094D83B28000297019601F005FB2223B0
:104BD00000222370782180440094213B2800029712
:104BE000019601F0F9FADA2300222370782180443B
:104BF0000094D93B28000297019601F0EDFA522368
:104C000000222370782180440094513B28000297B1
:104C1000019601F0E1FADB23002223707821804421
:104C20000094DA3B28000297019601F0D5FA4B4632
:104C3000002223707821804400941F3B28000297B3
:104C4000019601F0C9FA8D23002223707821804457
:104C500000948C3B28000297019601F0BDFA1423C2
:104C600000222370782180440094133B280002978F
:104C7000019601F0B1FAAF23804423700022009422
:104C80007821280002970196AE3B01F0A5FA404436
:104C9000041E13D182220021D200094803F032FC05
:104CA0002800FFF743FE0020064B1C605E7107B032
:104CB000F0BCBB46B246A946A046F0BD0120F6E7CF
:104CC0000807002000070020F0B54E46DE46574694
:104CD0004546E0B593B0CCB21091B34908930B8828
:104CE000060018191192812800DD80E010AA55787D
:104CF00004954F882A00BC46624406973F2A76DC1A
:104D0000002D71D00A79A04609923200203A6A43F8
:104D1000119D5200A946914400229346A34ACA46D7
:104D20009146524644461288002C54D003923200D9
:104D30005E46DCB24F469946069B07949B19DBB250
:104D4000444693463F2B40D8DD08AC46AA010B925F
:104D500062445200019207221340063A9A40D3431C
:104D60000592089ADBB202930A95079B002A46D067
:104D7000099D002D00D085E0012A00D1E6E04A46D9
:104D80008046894605920A96812B05D80199029E94
:104D90005818395C3140395401330135DBB2AC422B
:104DA000F2D8404649460A9E059B994602239C46F6
:104DB000049B0136E244B34260D953461B880393F7
:104DC000069B9B19DBB23F2BBED95A464B46B346D6
:104DD000A046B9461600012294460132E3449446A7
:104DE000049AE2445A459CD80880300000E0002034
:104DF00013B0F0BCBB46B246A946A046F0BD099A26
:104E00000025002A6DD1802212029446674A80460E
:104E10000A924A460C960B928946039A03970DE034
:104E2000812B06D801990A9FC818395C059E314329
:104E3000395401330135DBB2AC4212D9110060465E
:104E4000A9400142ECD0812BF3D801995748591859
:104E5000465C029F01333E4001354654DBB2AC4212
:104E6000ECD80B9B4946994602239C460C9E049B1A
:104E700001364046039FE244B3429ED85E46088016
:104E80003000B5E78022120294464A4600250A9275
:104E900080468946039A0B960CE0812B05D8019930
:104EA000029E5818395C3140395401330135DBB268
:104EB000AC4211D911006046A9400142EDD1812BCD
:104EC000F3D80199059EC818395C01333143013587
:104ED0003954DBB2AC42EDD8404649460B9E0A9BA2
:104EE00063E7802212029446304A0D960C920E918E
:104EF000039A0F9703900DE0812B06D801990C9F20
:104F000059187E5C029806407E5401330135DBB2AD
:104F1000A54216D216006146AE400E42ECD0812B5F
:104F2000F3D80A990B9E8846464420487600F61826
:104F3000815D059F0133394301358155DBB2A542BF
:104F4000E8D30D9E03980E990F9F2FE7802212023F
:104F50009046164A00250C920D96039A0E910390E6
:104F60000F970DE0812B06D801990C9F59187E5C94
:104F7000029806407E5401330135DBB2AC42E0D9E1
:104F800016004146AE400E42ECD0812BF3D80A9970
:104F90000B9E8C46664405487600F618815D059F99
:104FA00039438155E7E7C046000700200807002085
:104FB00030B583B000910192040000781D000028F4
:104FC00004D10EE06078013400280AD0019A2B0049
:104FD0000099FFF779FE22789042F3D0100003B0D9
:104FE00030BD0022FAE7C046024B0230C0B2188042
:104FF00059807047000700200121054B5A6B0A4376
:105000005A638022996B52050A439A637047C046DF
:105010000010024010B5040088B01422002102A83C
:1050200003F070FA23681F4A934204D01E4A934249
:105030001CD008B010BD02231C4C1D48E26A02A916
:105040001A43E262E26A13400093C022009B1223DB
:105050000292039303230593023B069300F0F2F9B7
:105060008023A26B9B031343A363E2E702230F4C4D
:105070000F48E26A02A91A43E262E26A134001930E
:10508000C022019B12231201029203930323059372
:105090000333069300F0D6F98023A26BDB0313439E
:1050A000A363C6E7005400400058004000100240CF
:1050B00000040050054B02689A4200D070478023DC
:1050C000034ADB02116D0B431365F7E7002800402C
:1050D000001002400368124A10B5934203D0114AEF
:1050E00093420ED010BD10210F4A1120936B0B4339
:1050F00093630021002200F055F9112000F07CF9A3
:10510000F0E70421084A1420536B0B43536300213A
:10511000002200F047F9142000F06EF9E2E7C046E3
:1051200000100040000801400010024010B50400CB
:1051300088B01422002102A803F0E4F90D4B226884
:105140009A4201D008B010BD02230B4A0B48D16A25
:105150001943D162D26A02A9134001938022019BB4
:1051600002239201029203930623069300F06AF948
:10517000E8E7C0460008014000100240000400506B
:10518000054B02689A4200D070478023034A1B04F3
:10519000916B0B439363F7E7005C00400010024003
:1051A000FEE7C046FEE7C0467047C0467047C046AF
:1051B00010B500F0D3F810BD10B5024802F03AFB6C
:1051C00010BDC046F405002010B5024802F032FBC5
:1051D00010BDC046B40500200120704710B503F093
:1051E000EBF9162303600120404210BD10B503F017
:1051F000E3F916230360FEE770B5161E07DD0C0009
:105200008D1800E000BF20700134AC42F9D13000AD
:1052100070BDC04670B5161E07DD0C008D182078D5
:10522000013400E000BFAC42F9D1300070BDC0468F
:10523000012040427047C04680239B0100204B6004
:105240007047C04601207047002070470C490D4A46
:105250000300521A0C4910B50868002804D0C3187E
:10526000934206D80B6010BD0848C31808609342EB
:10527000F8D903F0A1F90C23036001204042F2E7C2
:105280000002000000200020180B0020700C0020FD
:105290007047C0460D488546FFF7FAFF0C480D4998
:1052A0000D4A002302E0D458C4500433C4188C4281
:1052B000F9D30A4A0A4C002301E013600432A242E7
:1052C000FBD303F07FF9FEF7E3FDFEE700200020AB
:1052D00000000020F0010020C8D50008F0010020E7
:1052E0006C0C0020FEE7000070B50400FA200E4BA5
:1052F00080001978FAF724FF0C4D01002868FAF7AE
:105300001FFF00F085F800280CD10130032C00D9D4
:1053100070BD02380022210000F044F8044B002048
:105320001C60F5E70120F3E7200000201C000020AE
:10533000240000204021084A10B5136803200B43C5
:105340001360FFF7D1FF041E02D00124200010BD1E
:10535000FFF752FEFAE7C04600200240034A044B22
:1053600011681B785B1813607047C0461C0B002047
:1053700020000020014B18687047C0461C0B00201D
:1053800070B50400FFF7F6FF0500631C02D0044B64
:105390001B78E418FFF7EEFF401BA042FAD370BD64
:1053A00020000020FF22032310B514000340DB007F
:1053B0009C4089010A40E4439A4000280BDB0C4BD7
:1053C000C0219C46800880006044890043582340E7
:1053D0001343435010BD0F23064903408C46083B3E
:1053E0009B089B006344D9690C401443DC61F1E7DE
:1053F00000E100E000ED00E0002805DB1F220123B2
:1054000002409340014A13607047C04600E100E04B
:105410008022431E5204012093420ED2C021074A2B
:1054200007485360036A09061B021B0A0B43036209
:1054300000230020936007331360704710E000E002
:1054400000ED00E0F0B5DE4657464E464546E0B575
:105450000C688B46002383B0002C6BD001229A404D
:10546000944622409246624614425FD003215A4637
:105470005F00B94055680322C9432A40561E009177
:10548000012E5ED9032A00D0B0E0BA400668009928
:1054900031400A430260C0229202154246D00126E2
:1054A000032761491F404A6BBF0032434A635F498B
:1054B0000E368C46BE409A08920062449168B14311
:1054C000A026F605B04212D0594EB04200D19EE05F
:1054D000584EB04200D19EE0574EB04200D192E00B
:1054E000564EB04200D19AE00626BE403143802697
:1054F00091605146524A7603C9439268354200D0C2
:1055000071E00A404E4EB260F268AF0268D40A40C1
:105510004B4EF2607268AF035FD40A40484E72602F
:105520003268ED0355D40A4045490A602200013330
:10553000DA4093D103B0F0BCBB46B246A946A046C0
:10554000F0BD81680E0000990E405946C968B14609
:105550000E00BE40B0464E4641460E43866041684E
:105560000E0061468E432909B0460E0001210E400F
:105570009E40B446464661460E434660C1680E00F2
:1055800000990E4059468968B0460E00BE40B446A8
:10559000464661460E43C660022A00D075E7D90828
:1055A00089008C46844461460E6A072119408900AF
:1055B000884601960F214646B140019E8E435946CA
:1055C000019646460969B140019E0E4361460E624E
:1055D0005BE7514611430A00A6E7564632439DE772
:1055E0005646324394E7564632438BE70E00C16875
:1055F0003140884659468968B9408C4641466646DE
:105600003143C16041E70326BE4031436FE70126C5
:10561000BE4031436BE70226BE40314367E70526B3
:10562000BE40314363E7C046001002400000014025
:105630000004005000080050000C0050001C0050F6
:105640000004014000690840431E9841C0B2704701
:10565000002A01D0816170478162FCE7F0B5DE4627
:1056600057464E464546E0B5036893469A6904009E
:105670000D001026042783B0520767D432000020A3
:10568000996984460A400E420DD0DE616A1C00D042
:1056900082E020219A691142FCD000222021D961A8
:1056A00001218C463A43802099694000014234D060
:1056B0000125D8612A43480504D5082002438020EB
:1056C000C000D861890504D502210A43FF31FF31AA
:1056D000D9619969890701D50021996201219869E9
:1056E000014202D1986901439961596854480140C7
:1056F0005960636C1343636420224123E254002207
:105700000133E254402300220120E25403B0F0BCF4
:10571000BB46B246A946A046F0BD4805CDD4890592
:10572000D2D461460029D4D19A69920610D4FFF7E9
:1057300021FE5B46C01A2368A84201D8002D02D181
:105740009A6917421FD09A69174297D00020DDE767
:105750009A69520702D5228D002AF7D11022100033
:10576000996908400A4215D0DA610C3A6264202136
:10577000D9615A68324802405A6041230022E154FC
:105780000133E254BEE72022636C13436364412378
:10579000E254B7E76064EAE70021280000225D4692
:1057A0008A462031884693468146019541469A694A
:1057B00011420FD15246002A3DD1FFF7DBFD401BBD
:1057C000814510D34B46002B0DD0414623689A6982
:1057D0001142EFD001995A468B4651464D46002959
:1057E00000D15BE75CE7422223685868A25C9969B4
:1057F000D2B294468022120211420DD08021C901FA
:10580000084209D16246202A06D05A6811435960DD
:10581000FFF7B0FD0500236841469A691142C5D1E2
:10582000FFF7A8FD2368401B1928F5D920229346CD
:105830001F3A9246BAE701995A464D468B462FE7E2
:1058400000E800FEF0B557464E46DE4645461024B9
:10585000E0B506000F0083B0036801920225B3464D
:105860002A0099690A400D4200D072E0210098692F
:105870000026014004420BD0DC61791C6DD1202050
:1058800099690842FCD02021D961042101261143E5
:1058900080209A694000024235D001245E462143AF
:1058A000D861500504D5082001438020C000D8618C
:1058B000920504D502221143FF32FF32DA619A6960
:1058C000920701D500229A6201229869024202D110
:1058D000986902439A615A68514802405A60736C51
:1058E00020220B4373644123F25400220133F2540B
:1058F000402300220120F25403B0F0BCBB46B24664
:10590000A946A046F0BD500501D55E46CBE79205FD
:1059100001D55E46CEE7002E1DD17A1CA0D0FFF740
:1059200029FD5E46019BC01A3368B84201D8002F9A
:1059300094D1022108009A691040114200D08DE7ED
:105940002022736C134373644123F2540133F054E7
:10595000CEE70020D0E75E46B1E701990092884685
:1059600000213A00894642315F4620268A46934606
:105970009A6916420FD14A46002A4BD1FFF7FAFC2A
:105980004346C01A83450FD35B46002B0CD03B68BF
:105990009A691642EFD05946BB460F004946009A15
:1059A000002900D16FE770E752463B685868BA5C3F
:1059B0009969D2B294468022120211421ED08021EF
:1059C000C90108421AD16246202A17D05A681143E9
:1059D0005960FFF7CFFC3A003B689046070006E0AD
:1059E000FFF7C8FC4346C01B19280BD81B689A69EF
:1059F0001642F5D04246B8461700B9E73A00474686
:105A00009046F4E7202200921F3AB84691461F00C4
:105A10001B68ADE75946009ABB460F0035E7C04604
:105A200000E800FEF0B5DE4657464E464546E0B576
:105A30000D000421036892469A69040010268B46E3
:105A400083B0920664D43200996900270A400E425E
:105A50000CD0DE616A1C65D120219A691142FCD00C
:105A600000222021D961594601270A4380209969E3
:105A70004000014234D00125D8612A43480504D5AD
:105A8000082002438020C000D861890504D5022186
:105A90000A43FF31FF31D9619969890701D5002196
:105AA000996201219869014202D198690143996183
:105AB0005968444801405960636C13436364202271
:105AC0004123E25400220133E2544023002201200A
:105AD000E25403B0F0BCBB46B246A946A046F0BDB6
